{
  "contractName": "DayToken",
  "abi": [
    {
      "constant": false,
      "inputs": [
        {
          "name": "addr",
          "type": "address"
        },
        {
          "name": "state",
          "type": "bool"
        }
      ],
      "name": "setTransferAgent",
      "outputs": [],
      "payable": false,
      "stateMutability": "nonpayable",
      "type": "function"
    },
    {
      "constant": true,
      "inputs": [],
      "name": "totalNormalContributorIdsAllocated",
      "outputs": [
        {
          "name": "",
          "type": "uint256"
        }
      ],
      "payable": false,
      "stateMutability": "view",
      "type": "function"
    },
    {
      "constant": true,
      "inputs": [],
      "name": "mintingFinished",
      "outputs": [
        {
          "name": "",
          "type": "bool"
        }
      ],
      "payable": false,
      "stateMutability": "view",
      "type": "function"
    },
    {
      "constant": true,
      "inputs": [],
      "name": "name",
      "outputs": [
        {
          "name": "",
          "type": "string"
        }
      ],
      "payable": false,
      "stateMutability": "view",
      "type": "function"
    },
    {
      "constant": false,
      "inputs": [
        {
          "name": "_spender",
          "type": "address"
        },
        {
          "name": "_value",
          "type": "uint256"
        }
      ],
      "name": "approve",
      "outputs": [
        {
          "name": "success",
          "type": "bool"
        }
      ],
      "payable": false,
      "stateMutability": "nonpayable",
      "type": "function"
    },
    {
      "constant": true,
      "inputs": [],
      "name": "teamLockPeriodInSec",
      "outputs": [
        {
          "name": "",
          "type": "uint256"
        }
      ],
      "payable": false,
      "stateMutability": "view",
      "type": "function"
    },
    {
      "constant": true,
      "inputs": [],
      "name": "firstTeamContributorId",
      "outputs": [
        {
          "name": "",
          "type": "uint256"
        }
      ],
      "payable": false,
      "stateMutability": "view",
      "type": "function"
    },
    {
      "constant": true,
      "inputs": [],
      "name": "totalSupply",
      "outputs": [
        {
          "name": "",
          "type": "uint256"
        }
      ],
      "payable": false,
      "stateMutability": "view",
      "type": "function"
    },
    {
      "constant": true,
      "inputs": [],
      "name": "totalPostIcoContributorIdsAllocated",
      "outputs": [
        {
          "name": "",
          "type": "uint256"
        }
      ],
      "payable": false,
      "stateMutability": "view",
      "type": "function"
    },
    {
      "constant": false,
      "inputs": [
        {
          "name": "addr",
          "type": "address"
        }
      ],
      "name": "setReleaseAgent",
      "outputs": [],
      "payable": false,
      "stateMutability": "nonpayable",
      "type": "function"
    },
    {
      "constant": true,
      "inputs": [],
      "name": "decimals",
      "outputs": [
        {
          "name": "",
          "type": "uint8"
        }
      ],
      "payable": false,
      "stateMutability": "view",
      "type": "function"
    },
    {
      "constant": true,
      "inputs": [
        {
          "name": "",
          "type": "uint256"
        }
      ],
      "name": "contributors",
      "outputs": [
        {
          "name": "adr",
          "type": "address"
        },
        {
          "name": "initialContributionDay",
          "type": "uint256"
        },
        {
          "name": "lastUpdatedOn",
          "type": "uint256"
        },
        {
          "name": "mintingPower",
          "type": "uint256"
        },
        {
          "name": "expiryBlockNumber",
          "type": "uint256"
        },
        {
          "name": "minPriceInDay",
          "type": "uint256"
        },
        {
          "name": "status",
          "type": "uint8"
        }
      ],
      "payable": false,
      "stateMutability": "view",
      "type": "function"
    },
    {
      "constant": false,
      "inputs": [
        {
          "name": "receiver",
          "type": "address"
        },
        {
          "name": "amount",
          "type": "uint256"
        }
      ],
      "name": "mint",
      "outputs": [],
      "payable": false,
      "stateMutability": "nonpayable",
      "type": "function"
    },
    {
      "constant": true,
      "inputs": [
        {
          "name": "",
          "type": "address"
        }
      ],
      "name": "mintAgents",
      "outputs": [
        {
          "name": "",
          "type": "bool"
        }
      ],
      "payable": false,
      "stateMutability": "view",
      "type": "function"
    },
    {
      "constant": false,
      "inputs": [
        {
          "name": "addr",
          "type": "address"
        },
        {
          "name": "state",
          "type": "bool"
        }
      ],
      "name": "setMintAgent",
      "outputs": [],
      "payable": false,
      "stateMutability": "nonpayable",
      "type": "function"
    },
    {
      "constant": false,
      "inputs": [
        {
          "name": "value",
          "type": "uint256"
        }
      ],
      "name": "upgrade",
      "outputs": [],
      "payable": false,
      "stateMutability": "nonpayable",
      "type": "function"
    },
    {
      "constant": true,
      "inputs": [],
      "name": "halvingCycle",
      "outputs": [
        {
          "name": "",
          "type": "uint256"
        }
      ],
      "payable": false,
      "stateMutability": "view",
      "type": "function"
    },
    {
      "constant": true,
      "inputs": [],
      "name": "DayInSecs",
      "outputs": [
        {
          "name": "",
          "type": "uint256"
        }
      ],
      "payable": false,
      "stateMutability": "view",
      "type": "function"
    },
    {
      "constant": true,
      "inputs": [
        {
          "name": "",
          "type": "address"
        }
      ],
      "name": "teamIssuedTimestamp",
      "outputs": [
        {
          "name": "",
          "type": "uint256"
        }
      ],
      "payable": false,
      "stateMutability": "view",
      "type": "function"
    },
    {
      "constant": true,
      "inputs": [],
      "name": "initialBlockTimestamp",
      "outputs": [
        {
          "name": "",
          "type": "uint256"
        }
      ],
      "payable": false,
      "stateMutability": "view",
      "type": "function"
    },
    {
      "constant": true,
      "inputs": [],
      "name": "mintingDec",
      "outputs": [
        {
          "name": "",
          "type": "uint256"
        }
      ],
      "payable": false,
      "stateMutability": "view",
      "type": "function"
    },
    {
      "constant": true,
      "inputs": [],
      "name": "maxMintingPower",
      "outputs": [
        {
          "name": "",
          "type": "uint256"
        }
      ],
      "payable": false,
      "stateMutability": "view",
      "type": "function"
    },
    {
      "constant": true,
      "inputs": [
        {
          "name": "",
          "type": "address"
        }
      ],
      "name": "soldAddresses",
      "outputs": [
        {
          "name": "",
          "type": "bool"
        }
      ],
      "payable": false,
      "stateMutability": "view",
      "type": "function"
    },
    {
      "constant": true,
      "inputs": [],
      "name": "minMintingPower",
      "outputs": [
        {
          "name": "",
          "type": "uint256"
        }
      ],
      "payable": false,
      "stateMutability": "view",
      "type": "function"
    },
    {
      "constant": true,
      "inputs": [],
      "name": "upgradeAgent",
      "outputs": [
        {
          "name": "",
          "type": "address"
        }
      ],
      "payable": false,
      "stateMutability": "view",
      "type": "function"
    },
    {
      "constant": true,
      "inputs": [],
      "name": "upgradeMaster",
      "outputs": [
        {
          "name": "",
          "type": "address"
        }
      ],
      "payable": false,
      "stateMutability": "view",
      "type": "function"
    },
    {
      "constant": true,
      "inputs": [],
      "name": "totalTeamContributorIdsAllocated",
      "outputs": [
        {
          "name": "",
          "type": "uint256"
        }
      ],
      "payable": false,
      "stateMutability": "view",
      "type": "function"
    },
    {
      "constant": false,
      "inputs": [],
      "name": "acceptOwnership",
      "outputs": [],
      "payable": false,
      "stateMutability": "nonpayable",
      "type": "function"
    },
    {
      "constant": true,
      "inputs": [],
      "name": "getUpgradeState",
      "outputs": [
        {
          "name": "",
          "type": "uint8"
        }
      ],
      "payable": false,
      "stateMutability": "view",
      "type": "function"
    },
    {
      "constant": true,
      "inputs": [
        {
          "name": "",
          "type": "address"
        }
      ],
      "name": "transferAgents",
      "outputs": [
        {
          "name": "",
          "type": "bool"
        }
      ],
      "payable": false,
      "stateMutability": "view",
      "type": "function"
    },
    {
      "constant": true,
      "inputs": [],
      "name": "owner",
      "outputs": [
        {
          "name": "",
          "type": "address"
        }
      ],
      "payable": false,
      "stateMutability": "view",
      "type": "function"
    },
    {
      "constant": true,
      "inputs": [
        {
          "name": "",
          "type": "address"
        }
      ],
      "name": "sellingPriceInDayOf",
      "outputs": [
        {
          "name": "",
          "type": "uint256"
        }
      ],
      "payable": false,
      "stateMutability": "view",
      "type": "function"
    },
    {
      "constant": true,
      "inputs": [],
      "name": "totalPostIcoContributorIds",
      "outputs": [
        {
          "name": "",
          "type": "uint256"
        }
      ],
      "payable": false,
      "stateMutability": "view",
      "type": "function"
    },
    {
      "constant": true,
      "inputs": [],
      "name": "maxAddresses",
      "outputs": [
        {
          "name": "",
          "type": "uint256"
        }
      ],
      "payable": false,
      "stateMutability": "view",
      "type": "function"
    },
    {
      "constant": true,
      "inputs": [],
      "name": "symbol",
      "outputs": [
        {
          "name": "",
          "type": "string"
        }
      ],
      "payable": false,
      "stateMutability": "view",
      "type": "function"
    },
    {
      "constant": true,
      "inputs": [],
      "name": "released",
      "outputs": [
        {
          "name": "",
          "type": "bool"
        }
      ],
      "payable": false,
      "stateMutability": "view",
      "type": "function"
    },
    {
      "constant": true,
      "inputs": [],
      "name": "isInitialBlockTimestampSet",
      "outputs": [
        {
          "name": "",
          "type": "bool"
        }
      ],
      "payable": false,
      "stateMutability": "view",
      "type": "function"
    },
    {
      "constant": true,
      "inputs": [],
      "name": "firstPostIcoContributorId",
      "outputs": [
        {
          "name": "",
          "type": "uint256"
        }
      ],
      "payable": false,
      "stateMutability": "view",
      "type": "function"
    },
    {
      "constant": true,
      "inputs": [
        {
          "name": "a",
          "type": "uint256"
        },
        {
          "name": "b",
          "type": "uint256"
        }
      ],
      "name": "safeSub",
      "outputs": [
        {
          "name": "",
          "type": "uint256"
        }
      ],
      "payable": false,
      "stateMutability": "view",
      "type": "function"
    },
    {
      "constant": true,
      "inputs": [],
      "name": "maxMintingDays",
      "outputs": [
        {
          "name": "",
          "type": "uint256"
        }
      ],
      "payable": false,
      "stateMutability": "view",
      "type": "function"
    },
    {
      "constant": true,
      "inputs": [],
      "name": "totalNormalContributorIds",
      "outputs": [
        {
          "name": "",
          "type": "uint256"
        }
      ],
      "payable": false,
      "stateMutability": "view",
      "type": "function"
    },
    {
      "constant": true,
      "inputs": [],
      "name": "totalTeamContributorIds",
      "outputs": [
        {
          "name": "",
          "type": "uint256"
        }
      ],
      "payable": false,
      "stateMutability": "view",
      "type": "function"
    },
    {
      "constant": true,
      "inputs": [],
      "name": "totalUpgraded",
      "outputs": [
        {
          "name": "",
          "type": "uint256"
        }
      ],
      "payable": false,
      "stateMutability": "view",
      "type": "function"
    },
    {
      "constant": true,
      "inputs": [],
      "name": "firstContributorId",
      "outputs": [
        {
          "name": "",
          "type": "uint256"
        }
      ],
      "payable": false,
      "stateMutability": "view",
      "type": "function"
    },
    {
      "constant": true,
      "inputs": [
        {
          "name": "a",
          "type": "uint256"
        },
        {
          "name": "b",
          "type": "uint256"
        }
      ],
      "name": "safeMul",
      "outputs": [
        {
          "name": "",
          "type": "uint256"
        }
      ],
      "payable": false,
      "stateMutability": "view",
      "type": "function"
    },
    {
      "constant": true,
      "inputs": [],
      "name": "releaseAgent",
      "outputs": [
        {
          "name": "",
          "type": "address"
        }
      ],
      "payable": false,
      "stateMutability": "view",
      "type": "function"
    },
    {
      "constant": true,
      "inputs": [],
      "name": "minBalanceToSell",
      "outputs": [
        {
          "name": "",
          "type": "uint256"
        }
      ],
      "payable": false,
      "stateMutability": "view",
      "type": "function"
    },
    {
      "constant": true,
      "inputs": [],
      "name": "newOwner",
      "outputs": [
        {
          "name": "",
          "type": "address"
        }
      ],
      "payable": false,
      "stateMutability": "view",
      "type": "function"
    },
    {
      "constant": false,
      "inputs": [
        {
          "name": "agent",
          "type": "address"
        }
      ],
      "name": "setUpgradeAgent",
      "outputs": [],
      "payable": false,
      "stateMutability": "nonpayable",
      "type": "function"
    },
    {
      "constant": true,
      "inputs": [
        {
          "name": "",
          "type": "address"
        }
      ],
      "name": "idOf",
      "outputs": [
        {
          "name": "",
          "type": "uint256"
        }
      ],
      "payable": false,
      "stateMutability": "view",
      "type": "function"
    },
    {
      "constant": true,
      "inputs": [
        {
          "name": "_owner",
          "type": "address"
        },
        {
          "name": "_spender",
          "type": "address"
        }
      ],
      "name": "allowance",
      "outputs": [
        {
          "name": "remaining",
          "type": "uint256"
        }
      ],
      "payable": false,
      "stateMutability": "view",
      "type": "function"
    },
    {
      "constant": true,
      "inputs": [
        {
          "name": "a",
          "type": "uint256"
        },
        {
          "name": "b",
          "type": "uint256"
        }
      ],
      "name": "safeAdd",
      "outputs": [
        {
          "name": "",
          "type": "uint256"
        }
      ],
      "payable": false,
      "stateMutability": "view",
      "type": "function"
    },
    {
      "constant": false,
      "inputs": [
        {
          "name": "_newOwner",
          "type": "address"
        }
      ],
      "name": "transferOwnership",
      "outputs": [],
      "payable": false,
      "stateMutability": "nonpayable",
      "type": "function"
    },
    {
      "constant": false,
      "inputs": [
        {
          "name": "master",
          "type": "address"
        }
      ],
      "name": "setUpgradeMaster",
      "outputs": [],
      "payable": false,
      "stateMutability": "nonpayable",
      "type": "function"
    },
    {
      "inputs": [
        {
          "name": "_name",
          "type": "string"
        },
        {
          "name": "_symbol",
          "type": "string"
        },
        {
          "name": "_initialSupply",
          "type": "uint256"
        },
        {
          "name": "_decimals",
          "type": "uint8"
        },
        {
          "name": "_mintable",
          "type": "bool"
        },
        {
          "name": "_maxAddresses",
          "type": "uint256"
        },
        {
          "name": "_firstTeamContributorId",
          "type": "uint256"
        },
        {
          "name": "_totalTeamContributorIds",
          "type": "uint256"
        },
        {
          "name": "_totalPostIcoContributorIds",
          "type": "uint256"
        },
        {
          "name": "_minMintingPower",
          "type": "uint256"
        },
        {
          "name": "_maxMintingPower",
          "type": "uint256"
        },
        {
          "name": "_halvingCycle",
          "type": "uint256"
        },
        {
          "name": "_minBalanceToSell",
          "type": "uint256"
        },
        {
          "name": "_dayInSecs",
          "type": "uint256"
        },
        {
          "name": "_teamLockPeriodInSec",
          "type": "uint256"
        }
      ],
      "payable": false,
      "stateMutability": "nonpayable",
      "type": "constructor"
    },
    {
      "anonymous": false,
      "inputs": [
        {
          "indexed": false,
          "name": "newName",
          "type": "string"
        },
        {
          "indexed": false,
          "name": "newSymbol",
          "type": "string"
        }
      ],
      "name": "UpdatedTokenInformation",
      "type": "event"
    },
    {
      "anonymous": false,
      "inputs": [
        {
          "indexed": false,
          "name": "id",
          "type": "uint256"
        },
        {
          "indexed": false,
          "name": "from",
          "type": "address"
        },
        {
          "indexed": false,
          "name": "to",
          "type": "address"
        }
      ],
      "name": "MintingAdrTransferred",
      "type": "event"
    },
    {
      "anonymous": false,
      "inputs": [
        {
          "indexed": false,
          "name": "adr",
          "type": "address"
        },
        {
          "indexed": false,
          "name": "id",
          "type": "uint256"
        }
      ],
      "name": "ContributorAdded",
      "type": "event"
    },
    {
      "anonymous": false,
      "inputs": [
        {
          "indexed": false,
          "name": "id",
          "type": "uint256"
        },
        {
          "indexed": false,
          "name": "seller",
          "type": "address"
        },
        {
          "indexed": false,
          "name": "minPriceInDay",
          "type": "uint256"
        },
        {
          "indexed": false,
          "name": "expiryBlockNumber",
          "type": "uint256"
        }
      ],
      "name": "TimeMintOnSale",
      "type": "event"
    },
    {
      "anonymous": false,
      "inputs": [
        {
          "indexed": false,
          "name": "id",
          "type": "uint256"
        },
        {
          "indexed": false,
          "name": "buyer",
          "type": "address"
        },
        {
          "indexed": false,
          "name": "offerInDay",
          "type": "uint256"
        }
      ],
      "name": "TimeMintSold",
      "type": "event"
    },
    {
      "anonymous": false,
      "inputs": [
        {
          "indexed": false,
          "name": "investor",
          "type": "address"
        },
        {
          "indexed": false,
          "name": "weiAmount",
          "type": "uint256"
        },
        {
          "indexed": false,
          "name": "tokenAmount",
          "type": "uint256"
        },
        {
          "indexed": false,
          "name": "customerId",
          "type": "uint256"
        },
        {
          "indexed": false,
          "name": "contributorId",
          "type": "uint256"
        }
      ],
      "name": "PostInvested",
      "type": "event"
    },
    {
      "anonymous": false,
      "inputs": [
        {
          "indexed": false,
          "name": "teamAddress",
          "type": "address"
        },
        {
          "indexed": false,
          "name": "id",
          "type": "uint256"
        }
      ],
      "name": "TeamAddressAdded",
      "type": "event"
    },
    {
      "anonymous": false,
      "inputs": [
        {
          "indexed": false,
          "name": "receiver",
          "type": "address"
        },
        {
          "indexed": false,
          "name": "weiAmount",
          "type": "uint256"
        },
        {
          "indexed": false,
          "name": "tokenAmount",
          "type": "uint256"
        },
        {
          "indexed": false,
          "name": "customerId",
          "type": "uint256"
        },
        {
          "indexed": false,
          "name": "contributorId",
          "type": "uint256"
        }
      ],
      "name": "Invested",
      "type": "event"
    },
    {
      "anonymous": false,
      "inputs": [
        {
          "indexed": true,
          "name": "_from",
          "type": "address"
        },
        {
          "indexed": true,
          "name": "_to",
          "type": "address"
        },
        {
          "indexed": false,
          "name": "_value",
          "type": "uint256"
        }
      ],
      "name": "Upgrade",
      "type": "event"
    },
    {
      "anonymous": false,
      "inputs": [
        {
          "indexed": false,
          "name": "agent",
          "type": "address"
        }
      ],
      "name": "UpgradeAgentSet",
      "type": "event"
    },
    {
      "anonymous": false,
      "inputs": [
        {
          "indexed": false,
          "name": "addr",
          "type": "address"
        },
        {
          "indexed": false,
          "name": "state",
          "type": "bool"
        }
      ],
      "name": "MintingAgentChanged",
      "type": "event"
    },
    {
      "anonymous": false,
      "inputs": [
        {
          "indexed": true,
          "name": "_from",
          "type": "address"
        },
        {
          "indexed": true,
          "name": "_to",
          "type": "address"
        }
      ],
      "name": "OwnershipTransferred",
      "type": "event"
    },
    {
      "anonymous": false,
      "inputs": [
        {
          "indexed": false,
          "name": "receiver",
          "type": "address"
        },
        {
          "indexed": false,
          "name": "amount",
          "type": "uint256"
        }
      ],
      "name": "Minted",
      "type": "event"
    },
    {
      "anonymous": false,
      "inputs": [
        {
          "indexed": true,
          "name": "_owner",
          "type": "address"
        },
        {
          "indexed": true,
          "name": "_spender",
          "type": "address"
        },
        {
          "indexed": false,
          "name": "_value",
          "type": "uint256"
        }
      ],
      "name": "Approval",
      "type": "event"
    },
    {
      "anonymous": false,
      "inputs": [
        {
          "indexed": true,
          "name": "_from",
          "type": "address"
        },
        {
          "indexed": true,
          "name": "_to",
          "type": "address"
        },
        {
          "indexed": false,
          "name": "_value",
          "type": "uint256"
        }
      ],
      "name": "Transfer",
      "type": "event"
    },
    {
      "constant": true,
      "inputs": [],
      "name": "isDayTokenActivated",
      "outputs": [
        {
          "name": "isActivated",
          "type": "bool"
        }
      ],
      "payable": false,
      "stateMutability": "view",
      "type": "function"
    },
    {
      "constant": true,
      "inputs": [
        {
          "name": "_id",
          "type": "uint256"
        }
      ],
      "name": "isValidContributorId",
      "outputs": [
        {
          "name": "isValidContributor",
          "type": "bool"
        }
      ],
      "payable": false,
      "stateMutability": "view",
      "type": "function"
    },
    {
      "constant": true,
      "inputs": [
        {
          "name": "_address",
          "type": "address"
        }
      ],
      "name": "isValidContributorAddress",
      "outputs": [
        {
          "name": "isValidContributor",
          "type": "bool"
        }
      ],
      "payable": false,
      "stateMutability": "view",
      "type": "function"
    },
    {
      "constant": true,
      "inputs": [
        {
          "name": "_address",
          "type": "address"
        }
      ],
      "name": "isTeamLockInPeriodOverIfTeamAddress",
      "outputs": [
        {
          "name": "isLockInPeriodOver",
          "type": "bool"
        }
      ],
      "payable": false,
      "stateMutability": "view",
      "type": "function"
    },
    {
      "constant": false,
      "inputs": [
        {
          "name": "_mintingDec",
          "type": "uint256"
        }
      ],
      "name": "setMintingDec",
      "outputs": [],
      "payable": false,
      "stateMutability": "nonpayable",
      "type": "function"
    },
    {
      "constant": false,
      "inputs": [],
      "name": "releaseTokenTransfer",
      "outputs": [],
      "payable": false,
      "stateMutability": "nonpayable",
      "type": "function"
    },
    {
      "constant": true,
      "inputs": [],
      "name": "canUpgrade",
      "outputs": [
        {
          "name": "",
          "type": "bool"
        }
      ],
      "payable": false,
      "stateMutability": "view",
      "type": "function"
    },
    {
      "constant": false,
      "inputs": [
        {
          "name": "_name",
          "type": "string"
        },
        {
          "name": "_symbol",
          "type": "string"
        }
      ],
      "name": "setTokenInformation",
      "outputs": [],
      "payable": false,
      "stateMutability": "nonpayable",
      "type": "function"
    },
    {
      "constant": true,
      "inputs": [
        {
          "name": "_day",
          "type": "uint256"
        }
      ],
      "name": "getPhaseCount",
      "outputs": [
        {
          "name": "phase",
          "type": "uint256"
        }
      ],
      "payable": false,
      "stateMutability": "view",
      "type": "function"
    },
    {
      "constant": true,
      "inputs": [],
      "name": "getDayCount",
      "outputs": [
        {
          "name": "daySinceMintingEpoch",
          "type": "uint256"
        }
      ],
      "payable": false,
      "stateMutability": "view",
      "type": "function"
    },
    {
      "constant": true,
      "inputs": [
        {
          "name": "_id",
          "type": "uint256"
        }
      ],
      "name": "getMintingPowerById",
      "outputs": [
        {
          "name": "mintingPower",
          "type": "uint256"
        }
      ],
      "payable": false,
      "stateMutability": "view",
      "type": "function"
    },
    {
      "constant": true,
      "inputs": [
        {
          "name": "_adr",
          "type": "address"
        }
      ],
      "name": "getMintingPowerByAddress",
      "outputs": [
        {
          "name": "mintingPower",
          "type": "uint256"
        }
      ],
      "payable": false,
      "stateMutability": "view",
      "type": "function"
    },
    {
      "constant": true,
      "inputs": [
        {
          "name": "_adr",
          "type": "address"
        }
      ],
      "name": "balanceOf",
      "outputs": [
        {
          "name": "balance",
          "type": "uint256"
        }
      ],
      "payable": false,
      "stateMutability": "view",
      "type": "function"
    },
    {
      "constant": true,
      "inputs": [
        {
          "name": "_id",
          "type": "uint256"
        }
      ],
      "name": "balanceById",
      "outputs": [
        {
          "name": "balance",
          "type": "uint256"
        }
      ],
      "payable": false,
      "stateMutability": "view",
      "type": "function"
    },
    {
      "constant": true,
      "inputs": [],
      "name": "getTotalSupply",
      "outputs": [
        {
          "name": "",
          "type": "uint256"
        }
      ],
      "payable": false,
      "stateMutability": "view",
      "type": "function"
    },
    {
      "constant": false,
      "inputs": [
        {
          "name": "_id",
          "type": "uint256"
        }
      ],
      "name": "updateTimeMintBalance",
      "outputs": [
        {
          "name": "",
          "type": "bool"
        }
      ],
      "payable": false,
      "stateMutability": "nonpayable",
      "type": "function"
    },
    {
      "constant": false,
      "inputs": [],
      "name": "updateMyTimeMintBalance",
      "outputs": [
        {
          "name": "",
          "type": "bool"
        }
      ],
      "payable": false,
      "stateMutability": "nonpayable",
      "type": "function"
    },
    {
      "constant": false,
      "inputs": [
        {
          "name": "_to",
          "type": "address"
        },
        {
          "name": "_value",
          "type": "uint256"
        }
      ],
      "name": "transfer",
      "outputs": [
        {
          "name": "success",
          "type": "bool"
        }
      ],
      "payable": false,
      "stateMutability": "nonpayable",
      "type": "function"
    },
    {
      "constant": false,
      "inputs": [
        {
          "name": "_from",
          "type": "address"
        },
        {
          "name": "_to",
          "type": "address"
        },
        {
          "name": "_value",
          "type": "uint256"
        }
      ],
      "name": "transferFrom",
      "outputs": [
        {
          "name": "success",
          "type": "bool"
        }
      ],
      "payable": false,
      "stateMutability": "nonpayable",
      "type": "function"
    },
    {
      "constant": false,
      "inputs": [
        {
          "name": "_minPriceInDay",
          "type": "uint256"
        },
        {
          "name": "_expiryBlockNumber",
          "type": "uint256"
        }
      ],
      "name": "sellMintingAddress",
      "outputs": [
        {
          "name": "",
          "type": "bool"
        }
      ],
      "payable": false,
      "stateMutability": "nonpayable",
      "type": "function"
    },
    {
      "constant": false,
      "inputs": [],
      "name": "cancelSaleOfMintingAddress",
      "outputs": [],
      "payable": false,
      "stateMutability": "nonpayable",
      "type": "function"
    },
    {
      "constant": true,
      "inputs": [],
      "name": "getOnSaleIds",
      "outputs": [
        {
          "name": "",
          "type": "uint256[]"
        }
      ],
      "payable": false,
      "stateMutability": "view",
      "type": "function"
    },
    {
      "constant": true,
      "inputs": [
        {
          "name": "_id",
          "type": "uint256"
        }
      ],
      "name": "getSellingStatus",
      "outputs": [
        {
          "name": "status",
          "type": "uint8"
        }
      ],
      "payable": false,
      "stateMutability": "view",
      "type": "function"
    },
    {
      "constant": false,
      "inputs": [
        {
          "name": "_offerId",
          "type": "uint256"
        },
        {
          "name": "_offerInDay",
          "type": "uint256"
        }
      ],
      "name": "buyMintingAddress",
      "outputs": [
        {
          "name": "",
          "type": "bool"
        }
      ],
      "payable": false,
      "stateMutability": "nonpayable",
      "type": "function"
    },
    {
      "constant": false,
      "inputs": [],
      "name": "fetchSuccessfulSaleProceed",
      "outputs": [
        {
          "name": "",
          "type": "bool"
        }
      ],
      "payable": false,
      "stateMutability": "nonpayable",
      "type": "function"
    },
    {
      "constant": false,
      "inputs": [],
      "name": "refundFailedAuctionAmount",
      "outputs": [
        {
          "name": "",
          "type": "bool"
        }
      ],
      "payable": false,
      "stateMutability": "nonpayable",
      "type": "function"
    },
    {
      "constant": false,
      "inputs": [
        {
          "name": "_adr",
          "type": "address"
        },
        {
          "name": "_id",
          "type": "uint256"
        },
        {
          "name": "_tokens",
          "type": "uint256"
        },
        {
          "name": "_isTest",
          "type": "bool"
        }
      ],
      "name": "addTeamTimeMints",
      "outputs": [],
      "payable": false,
      "stateMutability": "nonpayable",
      "type": "function"
    },
    {
      "constant": false,
      "inputs": [
        {
          "name": "_receiver",
          "type": "address"
        },
        {
          "name": "_customerId",
          "type": "uint256"
        },
        {
          "name": "_id",
          "type": "uint256"
        }
      ],
      "name": "postAllocateAuctionTimeMints",
      "outputs": [],
      "payable": false,
      "stateMutability": "nonpayable",
      "type": "function"
    },
    {
      "constant": false,
      "inputs": [
        {
          "name": "_receiver",
          "type": "address"
        },
        {
          "name": "_customerId",
          "type": "uint256"
        },
        {
          "name": "_id",
          "type": "uint256"
        },
        {
          "name": "_tokens",
          "type": "uint256"
        },
        {
          "name": "_weiAmount",
          "type": "uint256"
        }
      ],
      "name": "allocateNormalTimeMints",
      "outputs": [],
      "payable": false,
      "stateMutability": "nonpayable",
      "type": "function"
    },
    {
      "constant": false,
      "inputs": [
        {
          "name": "_initialBlockTimestamp",
          "type": "uint256"
        }
      ],
      "name": "releaseToken",
      "outputs": [],
      "payable": false,
      "stateMutability": "nonpayable",
      "type": "function"
    }
  ],
  "bytecode": "0x60806040526000600560146101000a81548160ff0219169083151502179055506000600760006101000a81548160ff021916908315150217905550610447600c55600060145560006017556000601a553480156200005c57600080fd5b506040516200605a3803806200605a8339810180604052810190808051820192919060200180518201929190602001805190602001909291908051906020019092919080519060200190929190805190602001909291908051906020019092919080519060200190929190805190602001909291908051906020019092919080519060200190929190805190602001909291908051906020019092919080519060200190929190805190602001909291905050503333600360006101000a81548173ffffffffffffffffffffffffffffffffffffffff021916908373ffffffffffffffffffffffffffffffffffffffff16021790555080600960006101000a81548173ffffffffffffffffffffffffffffffffffffffff021916908373ffffffffffffffffffffffffffffffffffffffff1602179055505033600360006101000a81548173ffffffffffffffffffffffffffffffffffffffff021916908373ffffffffffffffffffffffffffffffffffffffff1602179055508e60259080519060200190620001ed92919062000435565b508d602690805190602001906200020692919062000435565b508c6000819055508b602760006101000a81548160ff021916908360ff16021790555060005460016000600360009054906101000a900473ffffffffffffffffffffffffffffffffffffffff1673ffffffffffffffffffffffffffffffffffffffff1673ffffffffffffffffffffffffffffffffffffffff1681526020019081526020016000208190555089601b819055506001601b54111515620002aa57600080fd5b60016012819055508688601b540303601381905550600160135410151515620002d257600080fd5b8860158190555087601681905550866019819055506001601954601b54030160188190555085601c8190555084601d8190555083601e81905550635e0be100601f819055506000602060006101000a81548160ff0219169083151502179055506013602181905550826022819055508160248190555080602381905550600080541115620003ea577f30385c845b448a36257a6a1716e6ad2e1bc2cbe333cde1e69fe849ad6511adfe600360009054906101000a900473ffffffffffffffffffffffffffffffffffffffff16600054604051808373ffffffffffffffffffffffffffffffffffffffff1673ffffffffffffffffffffffffffffffffffffffff1681526020018281526020019250505060405180910390a15b8a151562000420576001600760006101000a81548160ff02191690831515021790555060008054141515156200041f57600080fd5b5b505050505050505050505050505050620004e4565b828054600181600116156101000203166002900490600052602060002090601f016020900481019282601f106200047857805160ff1916838001178555620004a9565b82800160010185558215620004a9579182015b82811115620004a85782518255916020019190600101906200048b565b5b509050620004b89190620004bc565b5090565b620004e191905b80821115620004dd576000816000905550600101620004c3565b5090565b90565b615b6680620004f46000396000f3006080604052600436106103d2576000357c0100000000000000000000000000000000000000000000000000000000900463ffffffff16806302f652a3146103d757806304d414741461042657806305d2035b1461045157806306fdde0314610480578063095ea7b3146105105780630a402742146105755780630c58062b146105e057806310f1726d1461060b578063128e37611461063a57806318160ddd146106655780631bf2a90a1461069057806323b872dd146106bb57806329ff4f53146107405780632f83f78114610783578063313ce567146107b2578063331c55b4146107e3578063335494a41461084657806335995022146108875780633cb5d100146108c85780633ed66d3d1461096d57806340c10f19146109bc57806342c1867b14610a095780634321467514610a6457806345977d0314610ab35780634778dfb814610ae05780634813e3e514610b21578063485d5dd214610b4c57806348bb406714610b775780634b3d81b614610bce5780634eee966f14610bf9578063534439a314610ca857806354f6310514610cd35780635956b85314610cfe5780635d444ffb14610d595780635de4ccb014610d845780635df34ff214610ddb5780635f412d4f14610e2a578063600440cb14610e4157806370a0823114610e98578063718228fa14610eef578063740707cf14610f1a57806379ba509714610f315780638444b39114610f485780638526d09214610f81578063867c285714610fdc5780638da5cb5b146110375780638f7b7bce1461108e578063928e6592146110e9578063936bbf9a1461114057806393e5365f1461116b57806395d89b4114611196578063961325211461122657806396a80699146112555780639738968c146112ac5780639aaac864146112db5780639bc8e9ee1461130a578063a222a52f14611337578063a293d1e814611362578063a41ff1e5146113ad578063a5f26760146113d8578063a66619011461141d578063a9059cbb14611448578063b19b2162146114ad578063b54d6238146114dc578063b6033daf14611509578063bef17ed014611560578063c392f1181461158b578063c4e41b22146115da578063c59513a414611605578063c752ff6214611634578063c96e83db1461165f578063d05c78da1461168a578063d1f276d3146116d5578063d49dbb5c1461172c578063d4ee1d9014611757578063d7e7088a146117ae578063d94fe832146117f1578063dd62ed3e14611848578063df30e592146118bf578063e0faf0a814611904578063e6cb901314611970578063eb60764f146119bb578063f2fde38b146119e6578063ffeb7d7514611a29575b600080fd5b3480156103e357600080fd5b50610424600480360381019080803573ffffffffffffffffffffffffffffffffffffffff169060200190929190803515159060200190929190505050611a6c565b005b34801561043257600080fd5b5061043b611b47565b6040518082815260200191505060405180910390f35b34801561045d57600080fd5b50610466611b4d565b604051808215151515815260200191505060405180910390f35b34801561048c57600080fd5b50610495611b60565b6040518080602001828103825283818151815260200191508051906020019080838360005b838110156104d55780820151818401526020810190506104ba565b50505050905090810190601f1680156105025780820380516001836020036101000a031916815260200191505b509250505060405180910390f35b34801561051c57600080fd5b5061055b600480360381019080803573ffffffffffffffffffffffffffffffffffffffff16906020019092919080359060200190929190505050611bfe565b604051808215151515815260200191505060405180910390f35b34801561058157600080fd5b506105de600480360381019080803573ffffffffffffffffffffffffffffffffffffffff16906020019092919080359060200190929190803590602001909291908035906020019092919080359060200190929190505050611d85565b005b3480156105ec57600080fd5b506105f5611ec3565b6040518082815260200191505060405180910390f35b34801561061757600080fd5b50610620611ec9565b604051808215151515815260200191505060405180910390f35b34801561064657600080fd5b5061064f611ed6565b6040518082815260200191505060405180910390f35b34801561067157600080fd5b5061067a611edc565b6040518082815260200191505060405180910390f35b34801561069c57600080fd5b506106a5611ee2565b6040518082815260200191505060405180910390f35b3480156106c757600080fd5b50610726600480360381019080803573ffffffffffffffffffffffffffffffffffffffff169060200190929190803573ffffffffffffffffffffffffffffffffffffffff16906020019092919080359060200190929190505050611ee8565b604051808215151515815260200191505060405180910390f35b34801561074c57600080fd5b50610781600480360381019080803573ffffffffffffffffffffffffffffffffffffffff169060200190929190505050612266565b005b34801561078f57600080fd5b5061079861232a565b604051808215151515815260200191505060405180910390f35b3480156107be57600080fd5b506107c76125b6565b604051808260ff1660ff16815260200191505060405180910390f35b3480156107ef57600080fd5b50610844600480360381019080803573ffffffffffffffffffffffffffffffffffffffff16906020019092919080359060200190929190803590602001909291908035151590602001909291905050506125c9565b005b34801561085257600080fd5b506108716004803603810190808035906020019092919050505061273e565b6040518082815260200191505060405180910390f35b34801561089357600080fd5b506108b26004803603810190808035906020019092919050505061277e565b6040518082815260200191505060405180910390f35b3480156108d457600080fd5b506108f36004803603810190808035906020019092919050505061279b565b604051808873ffffffffffffffffffffffffffffffffffffffff1673ffffffffffffffffffffffffffffffffffffffff16815260200187815260200186815260200185815260200184815260200183815260200182600281111561095357fe5b60ff16815260200197505050505050505060405180910390f35b34801561097957600080fd5b506109a2600480360381019080803590602001909291908035906020019092919050505061280a565b604051808215151515815260200191505060405180910390f35b3480156109c857600080fd5b50610a07600480360381019080803573ffffffffffffffffffffffffffffffffffffffff16906020019092919080359060200190929190505050612bc9565b005b348015610a1557600080fd5b50610a4a600480360381019080803573ffffffffffffffffffffffffffffffffffffffff169060200190929190505050612d2f565b604051808215151515815260200191505060405180910390f35b348015610a7057600080fd5b50610ab1600480360381019080803573ffffffffffffffffffffffffffffffffffffffff169060200190929190803515159060200190929190505050612d4f565b005b348015610abf57600080fd5b50610ade60048036038101908080359060200190929190505050612e91565b005b348015610aec57600080fd5b50610b0b6004803603810190808035906020019092919050505061310a565b6040518082815260200191505060405180910390f35b348015610b2d57600080fd5b50610b366131c3565b6040518082815260200191505060405180910390f35b348015610b5857600080fd5b50610b616131c9565b6040518082815260200191505060405180910390f35b348015610b8357600080fd5b50610bb8600480360381019080803573ffffffffffffffffffffffffffffffffffffffff1690602001909291905050506131cf565b6040518082815260200191505060405180910390f35b348015610bda57600080fd5b50610be36131e7565b6040518082815260200191505060405180910390f35b348015610c0557600080fd5b50610ca6600480360381019080803590602001908201803590602001908080601f0160208091040260200160405190810160405280939291908181526020018383808284378201915050505050509192919290803590602001908201803590602001908080601f01602080910402602001604051908101604052809392919081815260200183838082843782019150505050505091929192905050506131ed565b005b348015610cb457600080fd5b50610cbd6133c0565b6040518082815260200191505060405180910390f35b348015610cdf57600080fd5b50610ce86133c6565b6040518082815260200191505060405180910390f35b348015610d0a57600080fd5b50610d3f600480360381019080803573ffffffffffffffffffffffffffffffffffffffff1690602001909291905050506133cc565b604051808215151515815260200191505060405180910390f35b348015610d6557600080fd5b50610d6e6133ec565b6040518082815260200191505060405180910390f35b348015610d9057600080fd5b50610d996133f2565b604051808273ffffffffffffffffffffffffffffffffffffffff1673ffffffffffffffffffffffffffffffffffffffff16815260200191505060405180910390f35b348015610de757600080fd5b50610e106004803603810190808035906020019092919080359060200190929190505050613418565b604051808215151515815260200191505060405180910390f35b348015610e3657600080fd5b50610e3f613870565b005b348015610e4d57600080fd5b50610e5661390c565b604051808273ffffffffffffffffffffffffffffffffffffffff1673ffffffffffffffffffffffffffffffffffffffff16815260200191505060405180910390f35b348015610ea457600080fd5b50610ed9600480360381019080803573ffffffffffffffffffffffffffffffffffffffff169060200190929190505050613932565b6040518082815260200191505060405180910390f35b348015610efb57600080fd5b50610f046139da565b6040518082815260200191505060405180910390f35b348015610f2657600080fd5b50610f2f6139e0565b005b348015610f3d57600080fd5b50610f46613afb565b005b348015610f5457600080fd5b50610f5d613c5a565b60405180826004811115610f6d57fe5b60ff16815260200191505060405180910390f35b348015610f8d57600080fd5b50610fc2600480360381019080803573ffffffffffffffffffffffffffffffffffffffff169060200190929190505050613cd9565b604051808215151515815260200191505060405180910390f35b348015610fe857600080fd5b5061101d600480360381019080803573ffffffffffffffffffffffffffffffffffffffff169060200190929190505050613d2a565b604051808215151515815260200191505060405180910390f35b34801561104357600080fd5b5061104c613d4a565b604051808273ffffffffffffffffffffffffffffffffffffffff1673ffffffffffffffffffffffffffffffffffffffff16815260200191505060405180910390f35b34801561109a57600080fd5b506110cf600480360381019080803573ffffffffffffffffffffffffffffffffffffffff169060200190929190505050613d70565b604051808215151515815260200191505060405180910390f35b3480156110f557600080fd5b5061112a600480360381019080803573ffffffffffffffffffffffffffffffffffffffff169060200190929190505050613e18565b6040518082815260200191505060405180910390f35b34801561114c57600080fd5b50611155613e30565b6040518082815260200191505060405180910390f35b34801561117757600080fd5b50611180613e36565b6040518082815260200191505060405180910390f35b3480156111a257600080fd5b506111ab613e3c565b6040518080602001828103825283818151815260200191508051906020019080838360005b838110156111eb5780820151818401526020810190506111d0565b50505050905090810190601f1680156112185780820380516001836020036101000a031916815260200191505b509250505060405180910390f35b34801561123257600080fd5b5061123b613eda565b604051808215151515815260200191505060405180910390f35b34801561126157600080fd5b506112aa600480360381019080803573ffffffffffffffffffffffffffffffffffffffff1690602001909291908035906020019092919080359060200190929190505050613eed565b005b3480156112b857600080fd5b506112c1614046565b604051808215151515815260200191505060405180910390f35b3480156112e757600080fd5b506112f061406d565b604051808215151515815260200191505060405180910390f35b34801561131657600080fd5b5061133560048036038101908080359060200190929190505050614080565b005b34801561134357600080fd5b5061134c614102565b6040518082815260200191505060405180910390f35b34801561136e57600080fd5b506113976004803603810190808035906020019092919080359060200190929190505050614108565b6040518082815260200191505060405180910390f35b3480156113b957600080fd5b506113c2614121565b6040518082815260200191505060405180910390f35b3480156113e457600080fd5b5061140360048036038101908080359060200190929190505050614127565b604051808215151515815260200191505060405180910390f35b34801561142957600080fd5b5061143261414c565b6040518082815260200191505060405180910390f35b34801561145457600080fd5b50611493600480360381019080803573ffffffffffffffffffffffffffffffffffffffff16906020019092919080359060200190929190505050614152565b604051808215151515815260200191505060405180910390f35b3480156114b957600080fd5b506114c26143b8565b604051808215151515815260200191505060405180910390f35b3480156114e857600080fd5b506115076004803603810190808035906020019092919050505061473a565b005b34801561151557600080fd5b5061154a600480360381019080803573ffffffffffffffffffffffffffffffffffffffff1690602001909291905050506147c6565b6040518082815260200191505060405180910390f35b34801561156c57600080fd5b50611575614817565b6040518082815260200191505060405180910390f35b34801561159757600080fd5b506115b66004803603810190808035906020019092919050505061481d565b604051808260028111156115c657fe5b60ff16815260200191505060405180910390f35b3480156115e657600080fd5b506115ef6148a5565b6040518082815260200191505060405180910390f35b34801561161157600080fd5b5061161a6148ae565b604051808215151515815260200191505060405180910390f35b34801561164057600080fd5b50611649614910565b6040518082815260200191505060405180910390f35b34801561166b57600080fd5b50611674614916565b6040518082815260200191505060405180910390f35b34801561169657600080fd5b506116bf600480360381019080803590602001909291908035906020019092919050505061491c565b6040518082815260200191505060405180910390f35b3480156116e157600080fd5b506116ea61494f565b604051808273ffffffffffffffffffffffffffffffffffffffff1673ffffffffffffffffffffffffffffffffffffffff16815260200191505060405180910390f35b34801561173857600080fd5b50611741614975565b6040518082815260200191505060405180910390f35b34801561176357600080fd5b5061176c61497b565b604051808273ffffffffffffffffffffffffffffffffffffffff1673ffffffffffffffffffffffffffffffffffffffff16815260200191505060405180910390f35b3480156117ba57600080fd5b506117ef600480360381019080803573ffffffffffffffffffffffffffffffffffffffff1690602001909291905050506149a1565b005b3480156117fd57600080fd5b50611832600480360381019080803573ffffffffffffffffffffffffffffffffffffffff169060200190929190505050614cc7565b6040518082815260200191505060405180910390f35b34801561185457600080fd5b506118a9600480360381019080803573ffffffffffffffffffffffffffffffffffffffff169060200190929190803573ffffffffffffffffffffffffffffffffffffffff169060200190929190505050614cdf565b6040518082815260200191505060405180910390f35b3480156118cb57600080fd5b506118ea60048036038101908080359060200190929190505050614d66565b604051808215151515815260200191505060405180910390f35b34801561191057600080fd5b50611919614e59565b6040518080602001828103825283818151815260200191508051906020019060200280838360005b8381101561195c578082015181840152602081019050611941565b505050509050019250505060405180910390f35b34801561197c57600080fd5b506119a56004803603810190808035906020019092919080359060200190929190505050614f57565b6040518082815260200191505060405180910390f35b3480156119c757600080fd5b506119d0614f75565b6040518082815260200191505060405180910390f35b3480156119f257600080fd5b50611a27600480360381019080803573ffffffffffffffffffffffffffffffffffffffff169060200190929190505050614fa2565b005b348015611a3557600080fd5b50611a6a600480360381019080803573ffffffffffffffffffffffffffffffffffffffff169060200190929190505050615042565b005b600360009054906101000a900473ffffffffffffffffffffffffffffffffffffffff1673ffffffffffffffffffffffffffffffffffffffff163373ffffffffffffffffffffffffffffffffffffffff16141515611ac857600080fd5b6000600560149054906101000a900460ff161515811515141515611aeb57600080fd5b81600660008573ffffffffffffffffffffffffffffffffffffffff1673ffffffffffffffffffffffffffffffffffffffff16815260200190815260200160002060006101000a81548160ff021916908315150217905550505050565b60145481565b600760009054906101000a900460ff1681565b60258054600181600116156101000203166002900480601f016020809104026020016040519081016040528092919081815260200182805460018160011615610100020316600290048015611bf65780601f10611bcb57610100808354040283529160200191611bf6565b820191906000526020600020905b815481529060010190602001808311611bd957829003601f168201915b505050505081565b600080821480611c8a57506000600260003373ffffffffffffffffffffffffffffffffffffffff1673ffffffffffffffffffffffffffffffffffffffff16815260200190815260200160002060008573ffffffffffffffffffffffffffffffffffffffff1673ffffffffffffffffffffffffffffffffffffffff16815260200190815260200160002054145b1515611c9557600080fd5b81600260003373ffffffffffffffffffffffffffffffffffffffff1673ffffffffffffffffffffffffffffffffffffffff16815260200190815260200160002060008573ffffffffffffffffffffffffffffffffffffffff1673ffffffffffffffffffffffffffffffffffffffff168152602001908152602001600020819055508273ffffffffffffffffffffffffffffffffffffffff163373ffffffffffffffffffffffffffffffffffffffff167f8c5be1e5ebec7d5bd14f71427d1e84f3dd0314c0f7b2291e5b200ac8c7c3b925846040518082815260200191505060405180910390a36001905092915050565b600360009054906101000a900473ffffffffffffffffffffffffffffffffffffffff1673ffffffffffffffffffffffffffffffffffffffff163373ffffffffffffffffffffffffffffffffffffffff16141515611de157600080fd5b6012548310158015611df557506013548311155b1515611e0057600080fd5b601354601454101515611e1257600080fd5b611e1d838684615108565b601460008154809291906001019190505550611e398583612bc9565b7f6bd11c91e66ab57411c3d72828f939eac4446988c1c1f5862442bf7fa9884e238582848787604051808673ffffffffffffffffffffffffffffffffffffffff1673ffffffffffffffffffffffffffffffffffffffff1681526020018581526020018481526020018381526020018281526020019550505050505060405180910390a15050505050565b60235481565b6000601f54421015905090565b60155481565b60005481565b601a5481565b600080611ef3611ec9565b1515611efe57600080fd5b611f0785613d70565b1515611f1257600080fd5b600260008673ffffffffffffffffffffffffffffffffffffffff1673ffffffffffffffffffffffffffffffffffffffff16815260200190815260200160002060003373ffffffffffffffffffffffffffffffffffffffff1673ffffffffffffffffffffffffffffffffffffffff168152602001908152602001600020549050611fd9600d60008773ffffffffffffffffffffffffffffffffffffffff1673ffffffffffffffffffffffffffffffffffffffff16815260200190815260200160002054615326565b5082611fe486613932565b10158015611ff3575060008314155b8015611fff5750808311155b151561200a57600080fd5b612052600d60008673ffffffffffffffffffffffffffffffffffffffff1673ffffffffffffffffffffffffffffffffffffffff16815260200190815260200160002054615326565b5061205d8184614108565b600260008773ffffffffffffffffffffffffffffffffffffffff1673ffffffffffffffffffffffffffffffffffffffff16815260200190815260200160002060003373ffffffffffffffffffffffffffffffffffffffff1673ffffffffffffffffffffffffffffffffffffffff16815260200190815260200160002081905550612126600160008773ffffffffffffffffffffffffffffffffffffffff1673ffffffffffffffffffffffffffffffffffffffff1681526020019081526020016000205484614108565b600160008773ffffffffffffffffffffffffffffffffffffffff1673ffffffffffffffffffffffffffffffffffffffff168152602001908152602001600020819055506121b2600160008673ffffffffffffffffffffffffffffffffffffffff1673ffffffffffffffffffffffffffffffffffffffff1681526020019081526020016000205484614f57565b600160008673ffffffffffffffffffffffffffffffffffffffff1673ffffffffffffffffffffffffffffffffffffffff168152602001908152602001600020819055508373ffffffffffffffffffffffffffffffffffffffff168573ffffffffffffffffffffffffffffffffffffffff167fddf252ad1be2c89b69c2b068fc378daa952ba7f163c4a11628f55a4df523b3ef856040518082815260200191505060405180910390a360019150509392505050565b600360009054906101000a900473ffffffffffffffffffffffffffffffffffffffff1673ffffffffffffffffffffffffffffffffffffffff163373ffffffffffffffffffffffffffffffffffffffff161415156122c257600080fd5b6000600560149054906101000a900460ff1615158115151415156122e557600080fd5b81600560006101000a81548173ffffffffffffffffffffffffffffffffffffffff021916908373ffffffffffffffffffffffffffffffffffffffff1602179055505050565b60008060011515601060003373ffffffffffffffffffffffffffffffffffffffff1673ffffffffffffffffffffffffffffffffffffffff16815260200190815260200160002060009054906101000a900460ff16151514151561238c57600080fd5b6000601060003373ffffffffffffffffffffffffffffffffffffffff1673ffffffffffffffffffffffffffffffffffffffff16815260200190815260200160002060006101000a81548160ff02191690831515021790555061242f602254601160003373ffffffffffffffffffffffffffffffffffffffff1673ffffffffffffffffffffffffffffffffffffffff16815260200190815260200160002054614f57565b905061247a600160003073ffffffffffffffffffffffffffffffffffffffff1673ffffffffffffffffffffffffffffffffffffffff1681526020019081526020016000205482614108565b600160003073ffffffffffffffffffffffffffffffffffffffff1673ffffffffffffffffffffffffffffffffffffffff16815260200190815260200160002081905550612506600160003373ffffffffffffffffffffffffffffffffffffffff1673ffffffffffffffffffffffffffffffffffffffff1681526020019081526020016000205482614f57565b600160003373ffffffffffffffffffffffffffffffffffffffff1673ffffffffffffffffffffffffffffffffffffffff168152602001908152602001600020819055503373ffffffffffffffffffffffffffffffffffffffff163073ffffffffffffffffffffffffffffffffffffffff167fddf252ad1be2c89b69c2b068fc378daa952ba7f163c4a11628f55a4df523b3ef836040518082815260200191505060405180910390a3600191505090565b602760009054906101000a900460ff1681565b600360009054906101000a900473ffffffffffffffffffffffffffffffffffffffff1673ffffffffffffffffffffffffffffffffffffffff163373ffffffffffffffffffffffffffffffffffffffff1614151561262557600080fd5b601554831015801561263c57506016546015540183105b151561264757600080fd5b60165460175410151561265957600080fd5b61266583856000615108565b6017600081548092919060010191905055508015156126c35742600f60008673ffffffffffffffffffffffffffffffffffffffff1673ffffffffffffffffffffffffffffffffffffffff168152602001908152602001600020819055505b6126cd8483612bc9565b7fe79fec6463e59273a1da7bc924872b8b35b64c591ce527b6329f0db8d6be71fd8484604051808373ffffffffffffffffffffffffffffffffffffffff1673ffffffffffffffffffffffffffffffffffffffff1681526020018281526020019250505060405180910390a150505050565b6000600161275261274d614f75565b61277e565b0360020a600e60008481526020019081526020016000206003015481151561277657fe5b049050919050565b60006001601e548381151561278f57fe5b04019050809050919050565b600e6020528060005260406000206000915090508060000160009054906101000a900473ffffffffffffffffffffffffffffffffffffffff16908060010154908060020154908060030154908060040154908060050154908060060160009054906101000a900460ff16905087565b600080612815611ec9565b151561282057600080fd5b438311151561282e57600080fd5b61283733613d70565b151561284257600080fd5b600d60003373ffffffffffffffffffffffffffffffffffffffff1673ffffffffffffffffffffffffffffffffffffffff1681526020019081526020016000205490506000600281111561289157fe5b600e600083815260200190815260200160002060060160009054906101000a900460ff1660028111156128c057fe5b1415156128cc57600080fd5b6128d581615326565b50602254600160003373ffffffffffffffffffffffffffffffffffffffff1673ffffffffffffffffffffffffffffffffffffffff168152602001908152602001600020541015151561292657600080fd5b83600e60008381526020019081526020016000206005018190555082600e6000838152602001908152602001600020600401819055506002600e600083815260200190815260200160002060060160006101000a81548160ff0219169083600281111561298f57fe5b02179055506129df600160003373ffffffffffffffffffffffffffffffffffffffff1673ffffffffffffffffffffffffffffffffffffffff16815260200190815260200160002054602254614108565b600160003373ffffffffffffffffffffffffffffffffffffffff1673ffffffffffffffffffffffffffffffffffffffff16815260200190815260200160002081905550612a6d600160003073ffffffffffffffffffffffffffffffffffffffff1673ffffffffffffffffffffffffffffffffffffffff16815260200190815260200160002054602254614f57565b600160003073ffffffffffffffffffffffffffffffffffffffff1673ffffffffffffffffffffffffffffffffffffffff168152602001908152602001600020819055503073ffffffffffffffffffffffffffffffffffffffff163373ffffffffffffffffffffffffffffffffffffffff167fddf252ad1be2c89b69c2b068fc378daa952ba7f163c4a11628f55a4df523b3ef6022546040518082815260200191505060405180910390a37f789864ab03bca8d309c9bec6804307cfc416db24eab7873ba7f3df79797b09178133600e600085815260200190815260200160002060050154600e600086815260200190815260200160002060040154604051808581526020018473ffffffffffffffffffffffffffffffffffffffff1673ffffffffffffffffffffffffffffffffffffffff16815260200183815260200182815260200194505050505060405180910390a1600191505092915050565b600860003373ffffffffffffffffffffffffffffffffffffffff1673ffffffffffffffffffffffffffffffffffffffff16815260200190815260200160002060009054906101000a900460ff161515612c2157600080fd5b600760009054906101000a900460ff16151515612c3d57600080fd5b612c4960005482614f57565b600081905550612c98600160008473ffffffffffffffffffffffffffffffffffffffff1673ffffffffffffffffffffffffffffffffffffffff1681526020019081526020016000205482614f57565b600160008473ffffffffffffffffffffffffffffffffffffffff1673ffffffffffffffffffffffffffffffffffffffff168152602001908152602001600020819055508173ffffffffffffffffffffffffffffffffffffffff1660007fddf252ad1be2c89b69c2b068fc378daa952ba7f163c4a11628f55a4df523b3ef836040518082815260200191505060405180910390a35050565b60086020528060005260406000206000915054906101000a900460ff1681565b600360009054906101000a900473ffffffffffffffffffffffffffffffffffffffff1673ffffffffffffffffffffffffffffffffffffffff163373ffffffffffffffffffffffffffffffffffffffff16141515612dab57600080fd5b600760009054906101000a900460ff16151515612dc757600080fd5b80600860008473ffffffffffffffffffffffffffffffffffffffff1673ffffffffffffffffffffffffffffffffffffffff16815260200190815260200160002060006101000a81548160ff0219169083151502179055507f4b0adf6c802794c7dde28a08a4e07131abcff3bf9603cd71f14f90bec7865efa8282604051808373ffffffffffffffffffffffffffffffffffffffff1673ffffffffffffffffffffffffffffffffffffffff168152602001821515151581526020019250505060405180910390a15050565b6000612e9b613c5a565b905060036004811115612eaa57fe5b816004811115612eb657fe5b1480612ed75750600480811115612ec957fe5b816004811115612ed557fe5b145b1515612ee257600080fd5b60008214151515612ef257600080fd5b612f3b600160003373ffffffffffffffffffffffffffffffffffffffff1673ffffffffffffffffffffffffffffffffffffffff1681526020019081526020016000205483614108565b600160003373ffffffffffffffffffffffffffffffffffffffff1673ffffffffffffffffffffffffffffffffffffffff16815260200190815260200160002081905550612f8a60005483614108565b600081905550612f9c600b5483614f57565b600b81905550600a60009054906101000a900473ffffffffffffffffffffffffffffffffffffffff1673ffffffffffffffffffffffffffffffffffffffff1663753e88e533846040518363ffffffff167c0100000000000000000000000000000000000000000000000000000000028152600401808373ffffffffffffffffffffffffffffffffffffffff1673ffffffffffffffffffffffffffffffffffffffff16815260200182815260200192505050600060405180830381600087803b15801561306757600080fd5b505af115801561307b573d6000803e3d6000fd5b50505050600a60009054906101000a900473ffffffffffffffffffffffffffffffffffffffff1673ffffffffffffffffffffffffffffffffffffffff163373ffffffffffffffffffffffffffffffffffffffff167f7e5c344a8141a805725cb476f76c6953b842222b967edd1f78ddb6e8b3f397ac846040518082815260200191505060405180910390a35050565b600080600e600084815260200190815260200160002060000160009054906101000a900473ffffffffffffffffffffffffffffffffffffffff16905061314e611ec9565b1561317a5761315c83614d66565b15613179576131728361316d614f75565b6154fc565b91506131bd565b5b600160008273ffffffffffffffffffffffffffffffffffffffff1673ffffffffffffffffffffffffffffffffffffffff1681526020019081526020016000205491505b50919050565b601e5481565b60245481565b600f6020528060005260406000206000915090505481565b601f5481565b600360009054906101000a900473ffffffffffffffffffffffffffffffffffffffff1673ffffffffffffffffffffffffffffffffffffffff163373ffffffffffffffffffffffffffffffffffffffff1614151561324957600080fd5b816025908051906020019061325f929190615a95565b508060269080519060200190613276929190615a95565b507fd131ab1e6f279deea74e13a18477e13e2107deb6dc8ae955648948be5841fb46602560266040518080602001806020018381038352858181546001816001161561010002031660029004815260200191508054600181600116156101000203166002900480156133295780601f106132fe57610100808354040283529160200191613329565b820191906000526020600020905b81548152906001019060200180831161330c57829003601f168201915b50508381038252848181546001816001161561010002031660029004815260200191508054600181600116156101000203166002900480156133ac5780601f10613381576101008083540402835291602001916133ac565b820191906000526020600020905b81548152906001019060200180831161338f57829003601f168201915b505094505050505060405180910390a15050565b60215481565b601d5481565b60106020528060005260406000206000915054906101000a900460ff1681565b601c5481565b600a60009054906101000a900473ffffffffffffffffffffffffffffffffffffffff1681565b60008060028081111561342757fe5b600e600086815260200190815260200160002060060160009054906101000a900460ff16600281111561345657fe5b1480156134785750600e60008581526020019081526020016000206004015443115b156134b6576001600e600086815260200190815260200160002060060160006101000a81548160ff021916908360028111156134b057fe5b02179055505b600e600085815260200190815260200160002060000160009054906101000a900473ffffffffffffffffffffffffffffffffffffffff1690506002808111156134fb57fe5b600e600086815260200190815260200160002060060160009054906101000a900460ff16600281111561352a57fe5b14151561353657600080fd5b600e600085815260200190815260200160002060050154831015151561355b57600080fd5b6000600e600086815260200190815260200160002060060160006101000a81548160ff0219169083600281111561358e57fe5b02179055506135dc600160003373ffffffffffffffffffffffffffffffffffffffff1673ffffffffffffffffffffffffffffffffffffffff1681526020019081526020016000205484614108565b600160003373ffffffffffffffffffffffffffffffffffffffff1673ffffffffffffffffffffffffffffffffffffffff16815260200190815260200160002081905550613668600160003073ffffffffffffffffffffffffffffffffffffffff1673ffffffffffffffffffffffffffffffffffffffff1681526020019081526020016000205484614f57565b600160003073ffffffffffffffffffffffffffffffffffffffff1673ffffffffffffffffffffffffffffffffffffffff168152602001908152602001600020819055503073ffffffffffffffffffffffffffffffffffffffff163373ffffffffffffffffffffffffffffffffffffffff167fddf252ad1be2c89b69c2b068fc378daa952ba7f163c4a11628f55a4df523b3ef856040518082815260200191505060405180910390a3613750600e600086815260200190815260200160002060000160009054906101000a900473ffffffffffffffffffffffffffffffffffffffff1633615659565b156138655782601160008373ffffffffffffffffffffffffffffffffffffffff1673ffffffffffffffffffffffffffffffffffffffff168152602001908152602001600020819055506001601060008373ffffffffffffffffffffffffffffffffffffffff1673ffffffffffffffffffffffffffffffffffffffff16815260200190815260200160002060006101000a81548160ff0219169083151502179055507f72760e46b3824807567c13ec75882de5d9c789a91517ae7b474d2e6b62d3771e843385604051808481526020018373ffffffffffffffffffffffffffffffffffffffff1673ffffffffffffffffffffffffffffffffffffffff168152602001828152602001935050505060405180910390a15b600191505092915050565b600360009054906101000a900473ffffffffffffffffffffffffffffffffffffffff1673ffffffffffffffffffffffffffffffffffffffff163373ffffffffffffffffffffffffffffffffffffffff161415156138cc57600080fd5b602060009054906101000a900460ff1615156138e757600080fd5b6001600760006101000a81548160ff02191690831515021790555061390a615923565b565b600960009054906101000a900473ffffffffffffffffffffffffffffffffffffffff1681565b600080600d60008473ffffffffffffffffffffffffffffffffffffffff1673ffffffffffffffffffffffffffffffffffffffff1681526020019081526020016000205490506000811415156139915761398a8161310a565b91506139d4565b600160008473ffffffffffffffffffffffffffffffffffffffff1673ffffffffffffffffffffffffffffffffffffffff1681526020019081526020016000205491505b50919050565b60175481565b6000600d60003373ffffffffffffffffffffffffffffffffffffffff1673ffffffffffffffffffffffffffffffffffffffff16815260200190815260200160002054613a2b81614d66565b1515613a3657600080fd5b600d60003373ffffffffffffffffffffffffffffffffffffffff1673ffffffffffffffffffffffffffffffffffffffff168152602001908152602001600020549150600280811115613a8457fe5b600e600084815260200190815260200160002060060160009054906101000a900460ff166002811115613ab357fe5b141515613abf57600080fd5b6001600e600084815260200190815260200160002060060160006101000a81548160ff02191690836002811115613af257fe5b02179055505050565b600460009054906101000a900473ffffffffffffffffffffffffffffffffffffffff1673ffffffffffffffffffffffffffffffffffffffff163373ffffffffffffffffffffffffffffffffffffffff16141515613b5757600080fd5b600460009054906101000a900473ffffffffffffffffffffffffffffffffffffffff1673ffffffffffffffffffffffffffffffffffffffff16600360009054906101000a900473ffffffffffffffffffffffffffffffffffffffff1673ffffffffffffffffffffffffffffffffffffffff167f8be0079c531659141344cd1fd0a4f28419497f9722a3daafe3b4186f6b6457e060405160405180910390a3600460009054906101000a900473ffffffffffffffffffffffffffffffffffffffff16600360006101000a81548173ffffffffffffffffffffffffffffffffffffffff021916908373ffffffffffffffffffffffffffffffffffffffff160217905550565b6000613c64614046565b1515613c735760019050613cd6565b6000600a60009054906101000a900473ffffffffffffffffffffffffffffffffffffffff1673ffffffffffffffffffffffffffffffffffffffff161415613cbd5760029050613cd6565b6000600b541415613cd15760039050613cd6565b600490505b90565b6000613d23600d60008473ffffffffffffffffffffffffffffffffffffffff1673ffffffffffffffffffffffffffffffffffffffff16815260200190815260200160002054614d66565b9050919050565b60066020528060005260406000206000915054906101000a900460ff1681565b600360009054906101000a900473ffffffffffffffffffffffffffffffffffffffff1681565b6000600190506000600f60008473ffffffffffffffffffffffffffffffffffffffff1673ffffffffffffffffffffffffffffffffffffffff16815260200190815260200160002054141515613e1057602354600f60008473ffffffffffffffffffffffffffffffffffffffff1673ffffffffffffffffffffffffffffffffffffffff1681526020019081526020016000205442031015613e0f57600090505b5b809050919050565b60116020528060005260406000206000915090505481565b60195481565b601b5481565b60268054600181600116156101000203166002900480601f016020809104026020016040519081016040528092919081815260200182805460018160011615610100020316600290048015613ed25780601f10613ea757610100808354040283529160200191613ed2565b820191906000526020600020905b815481529060010190602001808311613eb557829003601f168201915b505050505081565b600560149054906101000a900460ff1681565b600360009054906101000a900473ffffffffffffffffffffffffffffffffffffffff1673ffffffffffffffffffffffffffffffffffffffff163373ffffffffffffffffffffffffffffffffffffffff16141515613f4957600080fd5b6018548110158015613f6057506019546018540181105b1515613f6b57600080fd5b601954601a54101515613f7d57600080fd5b60011515600560149054906101000a900460ff161515141515613f9f57600080fd5b613fab81846000615108565b601a600081548092919060010191905055507f5da87a24d5db985862dc335ff32e322d9588ae9b4a971bd1526a58051c8cbaa4836000808585604051808673ffffffffffffffffffffffffffffffffffffffff1673ffffffffffffffffffffffffffffffffffffffff1681526020018581526020018481526020018381526020018281526020019550505050505060405180910390a1505050565b6000600560149054906101000a900460ff168015614068575061406761599c565b5b905090565b602060009054906101000a900460ff1681565b600360009054906101000a900473ffffffffffffffffffffffffffffffffffffffff1673ffffffffffffffffffffffffffffffffffffffff163373ffffffffffffffffffffffffffffffffffffffff161415156140dc57600080fd5b602060009054906101000a900460ff161515156140f857600080fd5b8060218190555050565b60185481565b600082821115151561411657fe5b818303905092915050565b600c5481565b6000614131611ec9565b151561413c57600080fd5b61414582615326565b9050919050565b60135481565b600061415c611ec9565b151561416757600080fd5b61417033613d70565b151561417b57600080fd5b6141c3600d60003373ffffffffffffffffffffffffffffffffffffffff1673ffffffffffffffffffffffffffffffffffffffff16815260200190815260200160002054615326565b50816141ce33613932565b101580156141dd575060008214155b15156141e857600080fd5b614230600d60008573ffffffffffffffffffffffffffffffffffffffff1673ffffffffffffffffffffffffffffffffffffffff16815260200190815260200160002054615326565b5061427a600160003373ffffffffffffffffffffffffffffffffffffffff1673ffffffffffffffffffffffffffffffffffffffff1681526020019081526020016000205483614108565b600160003373ffffffffffffffffffffffffffffffffffffffff1673ffffffffffffffffffffffffffffffffffffffff16815260200190815260200160002081905550614306600160008573ffffffffffffffffffffffffffffffffffffffff1673ffffffffffffffffffffffffffffffffffffffff1681526020019081526020016000205483614f57565b600160008573ffffffffffffffffffffffffffffffffffffffff1673ffffffffffffffffffffffffffffffffffffffff168152602001908152602001600020819055508273ffffffffffffffffffffffffffffffffffffffff163373ffffffffffffffffffffffffffffffffffffffff167fddf252ad1be2c89b69c2b068fc378daa952ba7f163c4a11628f55a4df523b3ef846040518082815260200191505060405180910390a36001905092915050565b600080600d60003373ffffffffffffffffffffffffffffffffffffffff1673ffffffffffffffffffffffffffffffffffffffff1681526020019081526020016000205461440481614d66565b151561440f57600080fd5b600d60003373ffffffffffffffffffffffffffffffffffffffff1673ffffffffffffffffffffffffffffffffffffffff168152602001908152602001600020549150600e600083815260200190815260200160002060040154431180156144ae575060028081111561447d57fe5b600e600084815260200190815260200160002060060160009054906101000a900460ff1660028111156144ac57fe5b145b156144ec576001600e600084815260200190815260200160002060060160006101000a81548160ff021916908360028111156144e657fe5b02179055505b600160028111156144f957fe5b600e600084815260200190815260200160002060060160009054906101000a900460ff16600281111561452857fe5b14151561453457600080fd5b6000600e600084815260200190815260200160002060060160006101000a81548160ff0219169083600281111561456757fe5b02179055506145b7600160003073ffffffffffffffffffffffffffffffffffffffff1673ffffffffffffffffffffffffffffffffffffffff16815260200190815260200160002054602254614108565b600160003073ffffffffffffffffffffffffffffffffffffffff1673ffffffffffffffffffffffffffffffffffffffff1681526020019081526020016000208190555061460382615326565b5061464f600160003373ffffffffffffffffffffffffffffffffffffffff1673ffffffffffffffffffffffffffffffffffffffff16815260200190815260200160002054602254614f57565b600160003373ffffffffffffffffffffffffffffffffffffffff1673ffffffffffffffffffffffffffffffffffffffff168152602001908152602001600020819055506000600e6000848152602001908152602001600020600501819055506000600e6000848152602001908152602001600020600401819055503373ffffffffffffffffffffffffffffffffffffffff163073ffffffffffffffffffffffffffffffffffffffff167fddf252ad1be2c89b69c2b068fc378daa952ba7f163c4a11628f55a4df523b3ef6022546040518082815260200191505060405180910390a360019250505090565b600360009054906101000a900473ffffffffffffffffffffffffffffffffffffffff1673ffffffffffffffffffffffffffffffffffffffff163373ffffffffffffffffffffffffffffffffffffffff1614151561479657600080fd5b600560149054906101000a900460ff161515156147b257600080fd5b6147bb816159a5565b6147c3613870565b50565b6000614810600d60008473ffffffffffffffffffffffffffffffffffffffff1673ffffffffffffffffffffffffffffffffffffffff1681526020019081526020016000205461273e565b9050919050565b60165481565b600061482882614d66565b151561483357600080fd5b600e600083815260200190815260200160002060060160009054906101000a900460ff169050600e60008381526020019081526020016000206004015443118015614893575060028081111561488557fe5b81600281111561489157fe5b145b1561489d57600190505b809050919050565b60008054905090565b60006148b8611ec9565b15156148c357600080fd5b61490b600d60003373ffffffffffffffffffffffffffffffffffffffff1673ffffffffffffffffffffffffffffffffffffffff16815260200190815260200160002054615326565b905090565b600b5481565b60125481565b6000808284029050600084148061493d575082848281151561493a57fe5b04145b151561494557fe5b8091505092915050565b600560009054906101000a900473ffffffffffffffffffffffffffffffffffffffff1681565b60225481565b600460009054906101000a900473ffffffffffffffffffffffffffffffffffffffff1681565b6149a9614046565b15156149b457600080fd5b60008173ffffffffffffffffffffffffffffffffffffffff16141515156149da57600080fd5b600960009054906101000a900473ffffffffffffffffffffffffffffffffffffffff1673ffffffffffffffffffffffffffffffffffffffff163373ffffffffffffffffffffffffffffffffffffffff16141515614a3657600080fd5b600480811115614a4257fe5b614a4a613c5a565b6004811115614a5557fe5b14151515614a6257600080fd5b80600a60006101000a81548173ffffffffffffffffffffffffffffffffffffffff021916908373ffffffffffffffffffffffffffffffffffffffff160217905550600a60009054906101000a900473ffffffffffffffffffffffffffffffffffffffff1673ffffffffffffffffffffffffffffffffffffffff166361d3d7a66040518163ffffffff167c0100000000000000000000000000000000000000000000000000000000028152600401602060405180830381600087803b158015614b2957600080fd5b505af1158015614b3d573d6000803e3d6000fd5b505050506040513d6020811015614b5357600080fd5b81019080805190602001909291905050501515614b6f57600080fd5b600054600a60009054906101000a900473ffffffffffffffffffffffffffffffffffffffff1673ffffffffffffffffffffffffffffffffffffffff16634b2ba0dd6040518163ffffffff167c0100000000000000000000000000000000000000000000000000000000028152600401602060405180830381600087803b158015614bf857600080fd5b505af1158015614c0c573d6000803e3d6000fd5b505050506040513d6020811015614c2257600080fd5b8101908080519060200190929190505050141515614c3f57600080fd5b7f7845d5aa74cc410e35571258d954f23b82276e160fe8c188fa80566580f279cc600a60009054906101000a900473ffffffffffffffffffffffffffffffffffffffff16604051808273ffffffffffffffffffffffffffffffffffffffff1673ffffffffffffffffffffffffffffffffffffffff16815260200191505060405180910390a150565b600d6020528060005260406000206000915090505481565b6000600260008473ffffffffffffffffffffffffffffffffffffffff1673ffffffffffffffffffffffffffffffffffffffff16815260200190815260200160002060008373ffffffffffffffffffffffffffffffffffffffff1673ffffffffffffffffffffffffffffffffffffffff16815260200190815260200160002054905092915050565b60008082118015614d795750601b548211155b8015614dd257506000600e600084815260200190815260200160002060000160009054906101000a900473ffffffffffffffffffffffffffffffffffffffff1673ffffffffffffffffffffffffffffffffffffffff1614155b8015614e52575081600d6000600e600086815260200190815260200160002060000160009054906101000a900473ffffffffffffffffffffffffffffffffffffffff1673ffffffffffffffffffffffffffffffffffffffff1673ffffffffffffffffffffffffffffffffffffffff16815260200190815260200160002054145b9050919050565b606080600080601b54604051908082528060200260200182016040528015614e905781602001602082028038833980820191505090505b50925060009150600190505b601b5481111515614f4e57614eb081614d66565b8015614ed25750600e6000828152602001908152602001600020600401544311155b8015614f165750600280811115614ee557fe5b600e600083815260200190815260200160002060060160009054906101000a900460ff166002811115614f1457fe5b145b15614f4157808383815181101515614f2a57fe5b906020019060200201818152505081806001019250505b8080600101915050614e9c565b82935050505090565b6000808284019050838110151515614f6b57fe5b8091505092915050565b6000809050614f82611ec9565b15614f9c57602454601f544203811515614f9857fe5b0490505b80905090565b600360009054906101000a900473ffffffffffffffffffffffffffffffffffffffff1673ffffffffffffffffffffffffffffffffffffffff163373ffffffffffffffffffffffffffffffffffffffff16141515614ffe57600080fd5b80600460006101000a81548173ffffffffffffffffffffffffffffffffffffffff021916908373ffffffffffffffffffffffffffffffffffffffff16021790555050565b60008173ffffffffffffffffffffffffffffffffffffffff161415151561506857600080fd5b600960009054906101000a900473ffffffffffffffffffffffffffffffffffffffff1673ffffffffffffffffffffffffffffffffffffffff163373ffffffffffffffffffffffffffffffffffffffff161415156150c457600080fd5b80600960006101000a81548173ffffffffffffffffffffffffffffffffffffffff021916908373ffffffffffffffffffffffffffffffffffffffff16021790555050565b600360009054906101000a900473ffffffffffffffffffffffffffffffffffffffff1673ffffffffffffffffffffffffffffffffffffffff163373ffffffffffffffffffffffffffffffffffffffff1614151561516457600080fd5b601b54831115151561517557600080fd5b61517e82613cd9565b15151561518a57600080fd5b61519383614d66565b15151561519f57600080fd5b81600e600085815260200190815260200160002060000160006101000a81548173ffffffffffffffffffffffffffffffffffffffff021916908373ffffffffffffffffffffffffffffffffffffffff16021790555082600d60008473ffffffffffffffffffffffffffffffffffffffff1673ffffffffffffffffffffffffffffffffffffffff1681526020019081526020016000208190555061524183615a42565b80600e600085815260200190815260200160002060010181905550615264614f75565b600e6000858152602001908152602001600020600201819055507f5fd6d0b7e707fe344bd2a1887f9d0eeea8bfcac6f339ba4200e74f0647f101c08284604051808373ffffffffffffffffffffffffffffffffffffffff1673ffffffffffffffffffffffffffffffffffffffff1681526020018281526020019250505060405180910390a16000600e600085815260200190815260200160002060060160006101000a81548160ff0219169083600281111561531c57fe5b0217905550505050565b600080600080600061533786614d66565b156154ee57615344614f75565b935083600e600088815260200190815260200160002060020154141580156153835750600c54600e600088815260200190815260200160002060020154105b156154ed57600e600087815260200190815260200160002060000160009054906101000a900473ffffffffffffffffffffffffffffffffffffffff169250600160008473ffffffffffffffffffffffffffffffffffffffff1673ffffffffffffffffffffffffffffffffffffffff16815260200190815260200160002054915061540f60005483614108565b60008190555061541f86856154fc565b905080600160008573ffffffffffffffffffffffffffffffffffffffff1673ffffffffffffffffffffffffffffffffffffffff1681526020019081526020016000208190555061547160005482614f57565b60008190555083600e6000888152602001908152602001600020600201819055508273ffffffffffffffffffffffffffffffffffffffff1660007fddf252ad1be2c89b69c2b068fc378daa952ba7f163c4a11628f55a4df523b3ef8484036040518082815260200191505060405180910390a3600194506154f3565b5b600094505b50505050919050565b60008060008060008060008060016000600e60008d815260200190815260200160002060000160009054906101000a900473ffffffffffffffffffffffffffffffffffffffff1673ffffffffffffffffffffffffffffffffffffffff1673ffffffffffffffffffffffffffffffffffffffff168152602001908152602001600020549650600c54891061559157600c54615593565b885b95506001600e60008c8152602001908152602001600020600201540194505b8585111515615649576155c48561277e565b93506001601e5485020392506001840360020a600e60008c8152602001908152602001600020600301548115156155f757fe5b0491508490505b82811115801561560e5750858111155b156156415761563287600260215401600a0a89850281151561562c57fe5b04614f57565b965080806001019150506155fe565b8094506155b2565b8697505050505050505092915050565b600080600d60008573ffffffffffffffffffffffffffffffffffffffff1673ffffffffffffffffffffffffffffffffffffffff168152602001908152602001600020546156a581614d66565b15156156b057600080fd5b6156b8611ec9565b15156156c357600080fd5b6156cc84613cd9565b1515156156d857600080fd5b600d60008673ffffffffffffffffffffffffffffffffffffffff1673ffffffffffffffffffffffffffffffffffffffff16815260200190815260200160002054915061572382615326565b5083600e600084815260200190815260200160002060000160006101000a81548173ffffffffffffffffffffffffffffffffffffffff021916908373ffffffffffffffffffffffffffffffffffffffff16021790555081600d60008673ffffffffffffffffffffffffffffffffffffffff1673ffffffffffffffffffffffffffffffffffffffff168152602001908152602001600020819055506000600d60008773ffffffffffffffffffffffffffffffffffffffff1673ffffffffffffffffffffffffffffffffffffffff168152602001908152602001600020819055506000600e600084815260200190815260200160002060010181905550615826614f75565b600e6000848152602001908152602001600020600201819055506000600e6000848152602001908152602001600020600401819055506000600e6000848152602001908152602001600020600501819055507ffb7aaa2ec871044b8cde9fee0cd727b02c8d6caf7aeb7f5fa2e02ffdfe164334828686604051808481526020018373ffffffffffffffffffffffffffffffffffffffff1673ffffffffffffffffffffffffffffffffffffffff1681526020018273ffffffffffffffffffffffffffffffffffffffff1673ffffffffffffffffffffffffffffffffffffffff168152602001935050505060405180910390a160019250505092915050565b600560009054906101000a900473ffffffffffffffffffffffffffffffffffffffff1673ffffffffffffffffffffffffffffffffffffffff163373ffffffffffffffffffffffffffffffffffffffff1614151561597f57600080fd5b6001600560146101000a81548160ff021916908315150217905550565b60006001905090565b600360009054906101000a900473ffffffffffffffffffffffffffffffffffffffff1673ffffffffffffffffffffffffffffffffffffffff163373ffffffffffffffffffffffffffffffffffffffff16141515615a0157600080fd5b602060009054906101000a900460ff16151515615a1d57600080fd5b6001602060006101000a81548160ff02191690831515021790555080601f8190555050565b80615a4c81614d66565b1515615a5757600080fd5b6001601b5403601c54601d54036001840302811515615a7257fe5b04601d5403600e6000848152602001908152602001600020600301819055505050565b828054600181600116156101000203166002900490600052602060002090601f016020900481019282601f10615ad657805160ff1916838001178555615b04565b82800160010185558215615b04579182015b82811115615b03578251825591602001919060010190615ae8565b5b509050615b119190615b15565b5090565b615b3791905b80821115615b33576000816000905550600101615b1b565b5090565b905600a165627a7a72305820ac31687363349846d350be4b404226c6b84e14ec7b4eb974a895a649e92d94100029",
  "source": "pragma solidity ^0.4.13; \n\nimport \"./StandardToken.sol\"; \nimport \"./UpgradeableToken.sol\"; \nimport \"./ReleasableToken.sol\"; \nimport \"./MintableToken.sol\";\nimport \"./SafeMathLib.sol\"; \n\n/**\n * A crowdsale token.\n *\n * An ERC-20 token designed specifically for crowdsales with investor protection and \n * further development path.\n *\n * - The token transfer() is disabled until the crowdsale is over\n * - The token contract gives an opt-in upgrade path to a new contract\n * - The same token can be part of several crowdsales through approve() mechanism\n * - The token can be capped (supply set in the constructor) \n *   or uncapped (crowdsale contract can mint new tokens)\n */\ncontract DayToken is  ReleasableToken, MintableToken, UpgradeableToken {\n\n    enum sellingStatus {NOTONSALE, EXPIRED, ONSALE}\n\n    /** Basic structure for a contributor with a minting Address\n     * adr address of the contributor\n     * initialContributionDay initial contribution of the contributor in wei\n     * lastUpdatedOn day count from Minting Epoch when the account balance was last updated\n     * mintingPower Initial Minting power of the address\n     * expiryBlockNumber Variable to mark end of Minting address sale. Set by user\n     * minPriceInDay minimum price of Minting address in Day tokens. Set by user\n     * status Selling status Variable for transfer Minting address.\n     * sellingPriceInDay Variable for transfer Minting address. Price at which the address is actually sold\n     */ \n    struct Contributor {\n        address adr;\n        uint256 initialContributionDay;\n        uint256 lastUpdatedOn; //Day from Minting Epoch\n        uint256 mintingPower;\n        uint expiryBlockNumber;\n        uint256 minPriceInDay;\n        sellingStatus status;\n    }\n\n    /* Stores maximum days for which minting will happen since minting epoch */\n    uint256 public maxMintingDays = 1095;\n\n    /* Mapping to store id of each minting address */\n    mapping (address => uint) public idOf;\n    /* Mapping from id of each minting address to their respective structures */\n    mapping (uint256 => Contributor) public contributors;\n    /* mapping to store unix timestamp of when the minting address is issued to each team member */\n    mapping (address => uint256) public teamIssuedTimestamp;\n    mapping (address => bool) public soldAddresses;\n    mapping (address => uint256) public sellingPriceInDayOf;\n\n    /* Stores the id of the first  contributor */\n    uint256 public firstContributorId;\n    /* Stores total Pre + Post ICO TimeMints */\n    uint256 public totalNormalContributorIds;\n    /* Stores total Normal TimeMints allocated */\n    uint256 public totalNormalContributorIdsAllocated = 0;\n    \n    /* Stores the id of the first team TimeMint */\n    uint256 public firstTeamContributorId;\n    /* Stores the total team TimeMints */\n    uint256 public totalTeamContributorIds;\n    /* Stores total team TimeMints allocated */\n    uint256 public totalTeamContributorIdsAllocated = 0;\n\n    /* Stores the id of the first Post ICO contributor (for auctionable TimeMints) */\n    uint256 public firstPostIcoContributorId;\n    /* Stores total Post ICO TimeMints (for auction) */\n    uint256 public totalPostIcoContributorIds;\n    /* Stores total Auction TimeMints allocated */\n    uint256 public totalPostIcoContributorIdsAllocated = 0;\n\n    /* Maximum number of address */\n    uint256 public maxAddresses;\n\n    /* Min Minting power with 19 decimals: 0.5% : 5000000000000000000 */\n    uint256 public minMintingPower;\n    /* Max Minting power with 19 decimals: 1% : 10000000000000000000 */\n    uint256 public maxMintingPower;\n    /* Halving cycle in days (88) */\n    uint256 public halvingCycle; \n    /* Unix timestamp when minting is to be started */\n    uint256 public initialBlockTimestamp;\n    /* Flag to prevent setting initialBlockTimestamp more than once */\n    bool public isInitialBlockTimestampSet;\n    /* number of decimals in minting power */\n    uint256 public mintingDec; \n\n    /* Minimum Balance in Day tokens required to sell a minting address */\n    uint256 public minBalanceToSell;\n    /* Team address lock down period from issued time, in seconds */\n    uint256 public teamLockPeriodInSec;  //Initialize and set function\n    /* Duration in secs that we consider as a day. (For test deployment purposes, \n       if we want to decrease length of a day. default: 84600)*/\n    uint256 public DayInSecs;\n\n    event UpdatedTokenInformation(string newName, string newSymbol); \n    event MintingAdrTransferred(uint id, address from, address to);\n    event ContributorAdded(address adr, uint id);\n    event TimeMintOnSale(uint id, address seller, uint minPriceInDay, uint expiryBlockNumber);\n    event TimeMintSold(uint id, address buyer, uint offerInDay);\n    event PostInvested(address investor, uint weiAmount, uint tokenAmount, uint customerId, uint contributorId);\n    \n    event TeamAddressAdded(address teamAddress, uint id);\n    // Tell us invest was success\n    event Invested(address receiver, uint weiAmount, uint tokenAmount, uint customerId, uint contributorId);\n\n    modifier onlyContributor(uint id){\n        require(isValidContributorId(id));\n        _;\n    }\n\n    string public name; \n\n    string public symbol; \n\n    uint8 public decimals; \n\n    /**\n        * Construct the token.\n        *\n        * This token must be created through a team multisig wallet, so that it is owned by that wallet.\n        *\n        * @param _name Token name\n        * @param _symbol Token symbol - should be all caps\n        * @param _initialSupply How many tokens we start with\n        * @param _decimals Number of decimal places\n        * _mintable Are new tokens created over the crowdsale or do we distribute only the initial supply?\n        */\n    function DayToken(string _name, string _symbol, uint _initialSupply, uint8 _decimals, \n        bool _mintable, uint _maxAddresses, uint _firstTeamContributorId, uint _totalTeamContributorIds, \n        uint _totalPostIcoContributorIds, uint256 _minMintingPower, uint256 _maxMintingPower, uint _halvingCycle, \n        uint256 _minBalanceToSell, uint256 _dayInSecs, uint256 _teamLockPeriodInSec) \n        UpgradeableToken(msg.sender) {\n        \n        // Create any address, can be transferred\n        // to team multisig via changeOwner(),\n        // also remember to call setUpgradeMaster()\n        owner = msg.sender; \n        name = _name; \n        symbol = _symbol;  \n        totalSupply = _initialSupply; \n        decimals = _decimals; \n        // Create initially all balance on the team multisig\n        balances[owner] = totalSupply; \n        maxAddresses = _maxAddresses;\n        require(maxAddresses > 1); // else division by zero will occur in setInitialMintingPowerOf\n        \n        firstContributorId = 1;\n        totalNormalContributorIds = maxAddresses - _totalTeamContributorIds - _totalPostIcoContributorIds;\n\n        // check timeMint total is sane\n        require(totalNormalContributorIds >= 1);\n\n        firstTeamContributorId = _firstTeamContributorId;\n        totalTeamContributorIds = _totalTeamContributorIds;\n        totalPostIcoContributorIds = _totalPostIcoContributorIds;\n        \n        // calculate first contributor id to be auctioned post ICO\n        firstPostIcoContributorId = maxAddresses - totalPostIcoContributorIds + 1;\n        minMintingPower = _minMintingPower;\n        maxMintingPower = _maxMintingPower;\n        halvingCycle = _halvingCycle;\n        // setting future date far far away, year 2020, \n        // call setInitialBlockTimestamp to set proper timestamp\n        initialBlockTimestamp = 1577836800;\n        isInitialBlockTimestampSet = false;\n        // use setMintingDec to change this\n        mintingDec = 19;\n        minBalanceToSell = _minBalanceToSell;\n        DayInSecs = _dayInSecs;\n        teamLockPeriodInSec = _teamLockPeriodInSec;\n        \n        if (totalSupply > 0) {\n            Minted(owner, totalSupply); \n        }\n\n        if (!_mintable) {\n            mintingFinished = true; \n            require(totalSupply != 0); \n        }\n    }\n\n    /**\n    * Used to set timestamp at which minting power of TimeMints is activated\n    * Can be called only by owner\n    * @param _initialBlockTimestamp timestamp to be set.\n    */\n    function setInitialBlockTimestamp(uint _initialBlockTimestamp) internal onlyOwner {\n        require(!isInitialBlockTimestampSet);\n        isInitialBlockTimestampSet = true;\n        initialBlockTimestamp = _initialBlockTimestamp;\n    }\n\n    /**\n    * check if mintining power is activated and Day token and Timemint transfer is enabled\n    */\n    function isDayTokenActivated() constant returns (bool isActivated) {\n        return (block.timestamp >= initialBlockTimestamp);\n    }\n\n\n    /**\n    * to check if an id is a valid contributor\n    * @param _id contributor id to check.\n    */\n    function isValidContributorId(uint _id) constant returns (bool isValidContributor) {\n        return (_id > 0 && _id <= maxAddresses && contributors[_id].adr != 0 \n            && idOf[contributors[_id].adr] == _id); // cross checking\n    }\n\n    /**\n    * to check if an address is a valid contributor\n    * @param _address  contributor address to check.\n    */\n    function isValidContributorAddress(address _address) constant returns (bool isValidContributor) {\n        return isValidContributorId(idOf[_address]);\n    }\n\n\n    /**\n    * In case of Team address check if lock-in period is over (returns true for all non team addresses)\n    * @param _address team address to check lock in period for.\n    */\n    function isTeamLockInPeriodOverIfTeamAddress(address _address) constant returns (bool isLockInPeriodOver) {\n        isLockInPeriodOver = true;\n        if (teamIssuedTimestamp[_address] != 0) {\n                if (block.timestamp - teamIssuedTimestamp[_address] < teamLockPeriodInSec)\n                    isLockInPeriodOver = false;\n        }\n\n        return isLockInPeriodOver;\n    }\n\n    /**\n    * Used to set mintingDec\n    * Can be called only by owner\n    * @param _mintingDec bounty to be set.\n    */\n    function setMintingDec(uint256 _mintingDec) onlyOwner {\n        require(!isInitialBlockTimestampSet);\n        mintingDec = _mintingDec;\n    }\n\n    /**\n        * When token is released to be transferable, enforce no new tokens can be created.\n        */\n    function releaseTokenTransfer() public onlyOwner {\n        require(isInitialBlockTimestampSet);\n        mintingFinished = true; \n        super.releaseTokenTransfer(); \n    }\n\n    /**\n        * Allow upgrade agent functionality kick in only if the crowdsale was success.\n        */\n    function canUpgrade() public constant returns(bool) {\n        return released && super.canUpgrade(); \n    }\n\n    /**\n        * Owner can update token information here\n        */\n    function setTokenInformation(string _name, string _symbol) onlyOwner {\n        name = _name; \n        symbol = _symbol; \n        UpdatedTokenInformation(name, symbol); \n    }\n\n    /**\n        * Returns the current phase.  \n        * Note: Phase starts with 1\n        * @param _day Number of days since Minting Epoch\n        */\n    function getPhaseCount(uint _day) public constant returns (uint phase) {\n        phase = (_day/halvingCycle) + 1; \n        return (phase); \n    }\n    /**\n        * Returns current day number since minting epoch \n        * or zero if initialBlockTimestamp is in future or its DayZero.\n        */\n    function getDayCount() public constant returns (uint daySinceMintingEpoch) {\n        daySinceMintingEpoch = 0;\n        if (isDayTokenActivated())\n            daySinceMintingEpoch = (block.timestamp - initialBlockTimestamp)/DayInSecs; \n\n        return daySinceMintingEpoch; \n    }\n    /**\n        * Calculates and Sets the minting power of a particular id.\n        * Called before Minting Epoch by constructor\n        * @param _id id of the address whose minting power is to be set.\n        */\n    function setInitialMintingPowerOf(uint256 _id) internal onlyContributor(_id) {\n        contributors[_id].mintingPower = \n            (maxMintingPower - ((_id-1) * (maxMintingPower - minMintingPower)/(maxAddresses-1))); \n    }\n\n    /**\n        * Returns minting power of a particular id.\n        * @param _id Contribution id whose minting power is to be returned\n        */\n    function getMintingPowerById(uint _id) public constant returns (uint256 mintingPower) {\n        return contributors[_id].mintingPower/(2**(getPhaseCount(getDayCount())-1)); \n    }\n\n    /**\n        * Returns minting power of a particular address.\n        * @param _adr Address whose minting power is to be returned\n        */\n    function getMintingPowerByAddress(address _adr) public constant returns (uint256 mintingPower) {\n        return getMintingPowerById(idOf[_adr]);\n    }\n\n\n    /**\n        * Calculates and returns the balance based on the minting power, day and phase.\n        * Can only be called internally\n        * Can calculate balance based on last updated.\n        * @param _id id whose balnce is to be calculated\n        * @param _dayCount day count upto which balance is to be updated\n        */\n    function availableBalanceOf(uint256 _id, uint _dayCount) internal returns (uint256) {\n        uint256 balance = balances[contributors[_id].adr]; \n        uint maxUpdateDays = _dayCount < maxMintingDays ? _dayCount : maxMintingDays;\n        uint i = contributors[_id].lastUpdatedOn + 1;\n        while(i <= maxUpdateDays) {\n             uint phase = getPhaseCount(i);\n             uint phaseEndDay = phase * halvingCycle - 1; // as first day is 0\n             uint constantFactor = contributors[_id].mintingPower / 2**(phase-1);\n\n            for (uint j = i; j <= phaseEndDay && j <= maxUpdateDays; j++) {\n                balance = safeAdd( balance, constantFactor * balance / 10**(mintingDec + 2) );\n            }\n\n            i = j;\n            \n        } \n        return balance; \n    }\n\n    /**\n        * Updates the balance of the specified id in its structure and also in the balances[] mapping.\n        * returns true if successful.\n        * Only for internal calls. Not public.\n        * @param _id id whose balance is to be updated.\n        */\n    function updateBalanceOf(uint256 _id) internal returns (bool success) {\n        // check if its contributor\n        if (isValidContributorId(_id)) {\n            uint dayCount = getDayCount();\n            // proceed only if not already updated today\n            if (contributors[_id].lastUpdatedOn != dayCount && contributors[_id].lastUpdatedOn < maxMintingDays) {\n                address adr = contributors[_id].adr;\n                uint oldBalance = balances[adr];\n                totalSupply = safeSub(totalSupply, oldBalance);\n                uint newBalance = availableBalanceOf(_id, dayCount);\n                balances[adr] = newBalance;\n                totalSupply = safeAdd(totalSupply, newBalance);\n                contributors[_id].lastUpdatedOn = dayCount;\n                Transfer(0, adr, newBalance - oldBalance);\n                return true; \n            }\n        }\n        return false;\n    }\n\n\n    /**\n        * Standard ERC20 function overridden.\n        * Returns the balance of the specified address.\n        * Calculates the balance on fly only if it is a minting address else \n        * simply returns balance from balances[] mapping.\n        * For public calls.\n        * @param _adr address whose balance is to be returned.\n        */\n    function balanceOf(address _adr) constant returns (uint balance) {\n        uint id = idOf[_adr];\n        if (id != 0)\n            return balanceById(id);\n        else \n            return balances[_adr]; \n    }\n\n\n    /**\n        * Standard ERC20 function overridden.\n        * Returns the balance of the specified id.\n        * Calculates the balance on fly only if it is a minting address else \n        * simply returns balance from balances[] mapping.\n        * For public calls.\n        * @param _id address whose balance is to be returned.\n        */\n    function balanceById(uint _id) public constant returns (uint256 balance) {\n        address adr = contributors[_id].adr; \n        if (isDayTokenActivated()) {\n            if (isValidContributorId(_id)) {\n                return ( availableBalanceOf(_id, getDayCount()) );\n            }\n        }\n        return balances[adr]; \n    }\n\n    /**\n        * Returns totalSupply of DAY tokens.\n        */\n    function getTotalSupply() public constant returns (uint) {\n        return totalSupply;\n    }\n\n    /** Function to update balance of a Timemint\n        * returns true if balance updated, false otherwise\n        * @param _id TimeMint to update\n        */\n    function updateTimeMintBalance(uint _id) public returns (bool) {\n        require(isDayTokenActivated());\n        return updateBalanceOf(_id);\n    }\n\n    /** Function to update balance of sender's Timemint\n        * returns true if balance updated, false otherwise\n        */\n    function updateMyTimeMintBalance() public returns (bool) {\n        require(isDayTokenActivated());\n        return updateBalanceOf(idOf[msg.sender]);\n    }\n\n    /**\n        * Standard ERC20 function overidden.\n        * Used to transfer day tokens from caller's address to another\n        * @param _to address to which Day tokens are to be transferred\n        * @param _value Number of Day tokens to be transferred\n        */\n    function transfer(address _to, uint _value) public returns (bool success) {\n        require(isDayTokenActivated());\n        // if Team address, check if lock-in period is over\n        require(isTeamLockInPeriodOverIfTeamAddress(msg.sender));\n\n        updateBalanceOf(idOf[msg.sender]);\n\n        // Check sender account has enough balance and transfer amount is non zero\n        require ( balanceOf(msg.sender) >= _value && _value != 0 ); \n        \n        updateBalanceOf(idOf[_to]);\n\n        balances[msg.sender] = safeSub(balances[msg.sender], _value); \n        balances[_to] = safeAdd(balances[_to], _value); \n        Transfer(msg.sender, _to, _value);\n\n        return true;\n    }\n    \n\n    /**\n        * Standard ERC20 Standard Token function overridden. Added Team address vesting period lock. \n        */\n    function transferFrom(address _from, address _to, uint _value) public returns (bool success) {\n        require(isDayTokenActivated());\n\n        // if Team address, check if lock-in period is over\n        require(isTeamLockInPeriodOverIfTeamAddress(_from));\n\n        uint _allowance = allowed[_from][msg.sender];\n\n        updateBalanceOf(idOf[_from]);\n\n        // Check from account has enough balance, transfer amount is non zero \n        // and _value is allowed to be transferred\n        require ( balanceOf(_from) >= _value && _value != 0  &&  _value <= _allowance); \n\n        updateBalanceOf(idOf[_to]);\n\n        allowed[_from][msg.sender] = safeSub(_allowance, _value);\n        balances[_from] = safeSub(balances[_from], _value);\n        balances[_to] = safeAdd(balances[_to], _value);\n    \n        Transfer(_from, _to, _value);\n        \n        return true;\n    }\n\n\n    /** \n        * Add any contributor structure (For every kind of contributors: Team/Pre-ICO/ICO/Test)\n        * @param _adr Address of the contributor to be added  \n        * @param _initialContributionDay Initial Contribution of the contributor to be added\n        */\n  function addContributor(uint contributorId, address _adr, uint _initialContributionDay) internal onlyOwner {\n        require(contributorId <= maxAddresses);\n        //address should not be an existing contributor\n        require(!isValidContributorAddress(_adr));\n        //TimeMint should not be already allocated\n        require(!isValidContributorId(contributorId));\n        contributors[contributorId].adr = _adr;\n        idOf[_adr] = contributorId;\n        setInitialMintingPowerOf(contributorId);\n        contributors[contributorId].initialContributionDay = _initialContributionDay;\n        contributors[contributorId].lastUpdatedOn = getDayCount();\n        ContributorAdded(_adr, contributorId);\n        contributors[contributorId].status = sellingStatus.NOTONSALE;\n    }\n\n\n    /** Function to be called by minting addresses in order to sell their address\n        * @param _minPriceInDay Minimum price in DAY tokens set by the seller\n        * @param _expiryBlockNumber Expiry Block Number set by the seller\n        */\n    function sellMintingAddress(uint256 _minPriceInDay, uint _expiryBlockNumber) public returns (bool) {\n        require(isDayTokenActivated());\n        require(_expiryBlockNumber > block.number);\n\n        // if Team address, check if lock-in period is over\n        require(isTeamLockInPeriodOverIfTeamAddress(msg.sender));\n\n        uint id = idOf[msg.sender];\n        require(contributors[id].status == sellingStatus.NOTONSALE);\n\n        // update balance of sender address before checking for minimum required balance\n        updateBalanceOf(id);\n        require(balances[msg.sender] >= minBalanceToSell);\n        contributors[id].minPriceInDay = _minPriceInDay;\n        contributors[id].expiryBlockNumber = _expiryBlockNumber;\n        contributors[id].status = sellingStatus.ONSALE;\n        balances[msg.sender] = safeSub(balances[msg.sender], minBalanceToSell);\n        balances[this] = safeAdd(balances[this], minBalanceToSell);\n        Transfer(msg.sender, this, minBalanceToSell);\n        TimeMintOnSale(id, msg.sender, contributors[id].minPriceInDay, contributors[id].expiryBlockNumber);\n        return true;\n    }\n\n\n    /** Function to be called by minting address in order to cancel the sale of their TimeMint\n        */\n    function cancelSaleOfMintingAddress() onlyContributor(idOf[msg.sender]) public {\n        uint id = idOf[msg.sender];\n        // TimeMint should be on sale\n        require(contributors[id].status == sellingStatus.ONSALE);\n        contributors[id].status = sellingStatus.EXPIRED;\n    }\n\n\n    /** Function to be called by any user to get a list of all On Sale TimeMints\n        */\n    function getOnSaleIds() constant public returns(uint[]) {\n        uint[] memory idsOnSale = new uint[](maxAddresses);\n        uint j = 0;\n        for(uint i=1; i <= maxAddresses; i++) {\n\n            if ( isValidContributorId(i) &&\n                block.number <= contributors[i].expiryBlockNumber && \n                contributors[i].status == sellingStatus.ONSALE ) {\n                    idsOnSale[j] = i;\n                    j++;     \n            }\n            \n        }\n        return idsOnSale;\n    }\n\n\n    /** Function to be called by any user to get status of a Time Mint.\n        * returns status 0 - Not on sale, 1 - Expired, 2 - On sale,\n        * @param _id ID number of the Time Mint \n        */\n    function getSellingStatus(uint _id) constant public returns(sellingStatus status) {\n        require(isValidContributorId(_id));\n        status = contributors[_id].status;\n        if ( block.number > contributors[_id].expiryBlockNumber && \n                status == sellingStatus.ONSALE )\n            status = sellingStatus.EXPIRED;\n\n        return status;\n    }\n\n    /** Function to be called by any user to buy a onsale address by offering an amount\n        * @param _offerId ID number of the address to be bought by the buyer\n        * @param _offerInDay Offer given by the buyer in number of DAY tokens\n        */\n    function buyMintingAddress(uint _offerId, uint256 _offerInDay) public returns(bool) {\n        if (contributors[_offerId].status == sellingStatus.ONSALE \n            && block.number > contributors[_offerId].expiryBlockNumber)\n        {\n            contributors[_offerId].status = sellingStatus.EXPIRED;\n        }\n        address soldAddress = contributors[_offerId].adr;\n        require(contributors[_offerId].status == sellingStatus.ONSALE);\n        require(_offerInDay >= contributors[_offerId].minPriceInDay);\n\n        // prevent seller from cancelling sale in between\n        contributors[_offerId].status = sellingStatus.NOTONSALE;\n\n        // first get the offered DayToken in the token contract & \n        // then transfer the total sum (minBalanceToSend+_offerInDay) to the seller\n        balances[msg.sender] = safeSub(balances[msg.sender], _offerInDay);\n        balances[this] = safeAdd(balances[this], _offerInDay);\n        Transfer(msg.sender, this, _offerInDay);\n        if(transferMintingAddress(contributors[_offerId].adr, msg.sender)) {\n            //mark the offer as sold & let seller pull the proceed to their own account.\n            sellingPriceInDayOf[soldAddress] = _offerInDay;\n            soldAddresses[soldAddress] = true; \n            TimeMintSold(_offerId, msg.sender, _offerInDay);  \n        }\n        return true;\n    }\n\n\n    /**\n        * Transfer minting address from one user to another\n        * Gives the transfer-to address, the id of the original address\n        * returns true if successful and false if not.\n        * @param _to address of the user to which minting address is to be tranferred\n        */\n    function transferMintingAddress(address _from, address _to) internal onlyContributor(idOf[_from]) returns (bool) {\n        require(isDayTokenActivated());\n\n        // _to should be non minting address\n        require(!isValidContributorAddress(_to));\n        \n        uint id = idOf[_from];\n        // update balance of from address before transferring minting power\n        updateBalanceOf(id);\n\n        contributors[id].adr = _to;\n        idOf[_to] = id;\n        idOf[_from] = 0;\n        contributors[id].initialContributionDay = 0;\n        // needed as id is assigned to new address\n        contributors[id].lastUpdatedOn = getDayCount();\n        contributors[id].expiryBlockNumber = 0;\n        contributors[id].minPriceInDay = 0;\n        MintingAdrTransferred(id, _from, _to);\n        return true;\n    }\n\n\n    /** Function to allow seller to get back their deposited amount of day tokens(minBalanceToSell) and \n        * offer made by buyer after successful sale.\n        * Throws if sale is not successful\n        */\n    function fetchSuccessfulSaleProceed() public  returns(bool) {\n        require(soldAddresses[msg.sender] == true);\n        // to prevent re-entrancy attack\n        soldAddresses[msg.sender] = false;\n        uint saleProceed = safeAdd(minBalanceToSell, sellingPriceInDayOf[msg.sender]);\n        balances[this] = safeSub(balances[this], saleProceed);\n        balances[msg.sender] = safeAdd(balances[msg.sender], saleProceed);\n        Transfer(this, msg.sender, saleProceed);\n        return true;\n                \n    }\n\n    /** Function that lets a seller get their deposited day tokens (minBalanceToSell) back, if no buyer turns up.\n        * Allowed only after expiryBlockNumber\n        * Throws if any other state other than EXPIRED\n        */\n    function refundFailedAuctionAmount() onlyContributor(idOf[msg.sender]) public returns(bool){\n        uint id = idOf[msg.sender];\n        if(block.number > contributors[id].expiryBlockNumber && contributors[id].status == sellingStatus.ONSALE)\n        {\n            contributors[id].status = sellingStatus.EXPIRED;\n        }\n        require(contributors[id].status == sellingStatus.EXPIRED);\n        // reset selling status\n        contributors[id].status = sellingStatus.NOTONSALE;\n        balances[this] = safeSub(balances[this], minBalanceToSell);\n        // update balance of seller address before refunding\n        updateBalanceOf(id);\n        balances[msg.sender] = safeAdd(balances[msg.sender], minBalanceToSell);\n        contributors[id].minPriceInDay = 0;\n        contributors[id].expiryBlockNumber = 0;\n        Transfer(this, msg.sender, minBalanceToSell);\n        return true;\n    }\n\n\n    /** Function to add a team address as a contributor and store it's time issued to calculate vesting period\n        * Called by owner\n        */\n    function addTeamTimeMints(address _adr, uint _id, uint _tokens, bool _isTest) public onlyOwner {\n        //check if Id is in range of team Ids\n        require(_id >= firstTeamContributorId && _id < firstTeamContributorId + totalTeamContributorIds);\n        require(totalTeamContributorIdsAllocated < totalTeamContributorIds);\n        addContributor(_id, _adr, 0);\n        totalTeamContributorIdsAllocated++;\n        // enforce lockin period if not test address\n        if(!_isTest) teamIssuedTimestamp[_adr] = block.timestamp;\n        mint(_adr, _tokens);\n        TeamAddressAdded(_adr, _id);\n    }\n\n\n    /** Function to add reserved aution TimeMints post-ICO. Only by owner\n        * @param _receiver Address of the minting to be added\n        * @param _customerId Server side id of the customer\n        * @param _id contributorId\n        */\n    function postAllocateAuctionTimeMints(address _receiver, uint _customerId, uint _id) public onlyOwner {\n\n        //check if Id is in range of Auction Ids\n        require(_id >= firstPostIcoContributorId && _id < firstPostIcoContributorId + totalPostIcoContributorIds);\n        require(totalPostIcoContributorIdsAllocated < totalPostIcoContributorIds);\n        \n        require(released == true);\n        addContributor(_id, _receiver, 0);\n        totalPostIcoContributorIdsAllocated++;\n        PostInvested(_receiver, 0, 0, _customerId, _id);\n    }\n\n\n    /** Function to add all contributors except team, test and Auctions TimeMints. Only by owner\n        * @param _receiver Address of the minting to be added\n        * @param _customerId Server side id of the customer\n        * @param _id contributor id\n        * @param _tokens day tokens to allocate\n        * @param _weiAmount ether invested in wei\n        */\n    function allocateNormalTimeMints(address _receiver, uint _customerId, uint _id, uint _tokens, uint _weiAmount) public onlyOwner {\n        // check if Id is in range of Normal Ids\n        require(_id >= firstContributorId && _id <= totalNormalContributorIds);\n        require(totalNormalContributorIdsAllocated < totalNormalContributorIds);\n        addContributor(_id, _receiver, _tokens);\n        totalNormalContributorIdsAllocated++;\n        mint(_receiver, _tokens);\n        Invested(_receiver, _weiAmount, _tokens, _customerId, _id);\n        \n    }\n\n\n    /** Function to release token\n        * Called by owner\n        */\n    function releaseToken(uint _initialBlockTimestamp) public onlyOwner {\n        require(!released); // check not already released\n        \n        setInitialBlockTimestamp(_initialBlockTimestamp);\n\n        // Make token transferable\n        releaseTokenTransfer();\n    }\n    \n}\n",
  "sourcePath": "ico-by-tosh/contracts/DayToken.sol",
  "compiler": {
    "name": "solc",
    "version": "0.4.24+commit.e67f0147.Emscripten.clang"
  },
  "schemaVersion": "2.0.1",
  "updatedAt": "2018-08-27T21:44:51.744Z"
}